{
  "_format": "hh-sol-artifact-1",
  "contractName": "LensHub",
  "sourceName": "contracts/core/LensHub.sol",
  "abi": [
    {
      "inputs": [
        {
          "internalType": "address",
          "name": "followNFTImpl",
          "type": "address"
        },
        {
          "internalType": "address",
          "name": "collectNFTImpl",
          "type": "address"
        }
      ],
      "stateMutability": "nonpayable",
      "type": "constructor"
    },
    {
      "inputs": [],
      "name": "CallerNotCollectNFT",
      "type": "error"
    },
    {
      "inputs": [],
      "name": "CallerNotFollowNFT",
      "type": "error"
    },
    {
      "inputs": [],
      "name": "CannotInitImplementation",
      "type": "error"
    },
    {
      "inputs": [],
      "name": "Initialized",
      "type": "error"
    },
    {
      "inputs": [],
      "name": "NotGovernance",
      "type": "error"
    },
    {
      "inputs": [],
      "name": "NotGovernanceOrEmergencyAdmin",
      "type": "error"
    },
    {
      "inputs": [],
      "name": "NotOwnerOrApproved",
      "type": "error"
    },
    {
      "inputs": [],
      "name": "NotProfileOwner",
      "type": "error"
    },
    {
      "inputs": [],
      "name": "NotProfileOwnerOrDispatcher",
      "type": "error"
    },
    {
      "inputs": [],
      "name": "Paused",
      "type": "error"
    },
    {
      "inputs": [],
      "name": "ProfileImageURILengthInvalid",
      "type": "error"
    },
    {
      "inputs": [],
      "name": "PublicationDoesNotExist",
      "type": "error"
    },
    {
      "inputs": [],
      "name": "PublishingPaused",
      "type": "error"
    },
    {
      "inputs": [],
      "name": "SignatureExpired",
      "type": "error"
    },
    {
      "inputs": [],
      "name": "SignatureInvalid",
      "type": "error"
    },
    {
      "inputs": [],
      "name": "ZeroSpender",
      "type": "error"
    },
    {
      "anonymous": false,
      "inputs": [
        {
          "indexed": true,
          "internalType": "address",
          "name": "owner",
          "type": "address"
        },
        {
          "indexed": true,
          "internalType": "address",
          "name": "approved",
          "type": "address"
        },
        {
          "indexed": true,
          "internalType": "uint256",
          "name": "tokenId",
          "type": "uint256"
        }
      ],
      "name": "Approval",
      "type": "event"
    },
    {
      "anonymous": false,
      "inputs": [
        {
          "indexed": true,
          "internalType": "address",
          "name": "owner",
          "type": "address"
        },
        {
          "indexed": true,
          "internalType": "address",
          "name": "operator",
          "type": "address"
        },
        {
          "indexed": false,
          "internalType": "bool",
          "name": "approved",
          "type": "bool"
        }
      ],
      "name": "ApprovalForAll",
      "type": "event"
    },
    {
      "anonymous": false,
      "inputs": [
        {
          "indexed": true,
          "internalType": "address",
          "name": "from",
          "type": "address"
        },
        {
          "indexed": true,
          "internalType": "address",
          "name": "to",
          "type": "address"
        },
        {
          "indexed": true,
          "internalType": "uint256",
          "name": "tokenId",
          "type": "uint256"
        }
      ],
      "name": "Transfer",
      "type": "event"
    },
    {
      "inputs": [
        {
          "internalType": "address",
          "name": "to",
          "type": "address"
        },
        {
          "internalType": "uint256",
          "name": "tokenId",
          "type": "uint256"
        }
      ],
      "name": "approve",
      "outputs": [],
      "stateMutability": "nonpayable",
      "type": "function"
    },
    {
      "inputs": [
        {
          "internalType": "address",
          "name": "owner",
          "type": "address"
        }
      ],
      "name": "balanceOf",
      "outputs": [
        {
          "internalType": "uint256",
          "name": "",
          "type": "uint256"
        }
      ],
      "stateMutability": "view",
      "type": "function"
    },
    {
      "inputs": [
        {
          "internalType": "uint256",
          "name": "tokenId",
          "type": "uint256"
        }
      ],
      "name": "burn",
      "outputs": [],
      "stateMutability": "nonpayable",
      "type": "function"
    },
    {
      "inputs": [
        {
          "internalType": "uint256",
          "name": "tokenId",
          "type": "uint256"
        },
        {
          "components": [
            {
              "internalType": "uint8",
              "name": "v",
              "type": "uint8"
            },
            {
              "internalType": "bytes32",
              "name": "r",
              "type": "bytes32"
            },
            {
              "internalType": "bytes32",
              "name": "s",
              "type": "bytes32"
            },
            {
              "internalType": "uint256",
              "name": "deadline",
              "type": "uint256"
            }
          ],
          "internalType": "struct DataTypes.EIP712Signature",
          "name": "sig",
          "type": "tuple"
        }
      ],
      "name": "burnWithSig",
      "outputs": [],
      "stateMutability": "nonpayable",
      "type": "function"
    },
    {
      "inputs": [
        {
          "internalType": "uint256",
          "name": "profileId",
          "type": "uint256"
        },
        {
          "internalType": "uint256",
          "name": "pubId",
          "type": "uint256"
        },
        {
          "internalType": "bytes",
          "name": "data",
          "type": "bytes"
        }
      ],
      "name": "collect",
      "outputs": [],
      "stateMutability": "nonpayable",
      "type": "function"
    },
    {
      "inputs": [
        {
          "components": [
            {
              "internalType": "address",
              "name": "collector",
              "type": "address"
            },
            {
              "internalType": "uint256",
              "name": "profileId",
              "type": "uint256"
            },
            {
              "internalType": "uint256",
              "name": "pubId",
              "type": "uint256"
            },
            {
              "internalType": "bytes",
              "name": "data",
              "type": "bytes"
            },
            {
              "components": [
                {
                  "internalType": "uint8",
                  "name": "v",
                  "type": "uint8"
                },
                {
                  "internalType": "bytes32",
                  "name": "r",
                  "type": "bytes32"
                },
                {
                  "internalType": "bytes32",
                  "name": "s",
                  "type": "bytes32"
                },
                {
                  "internalType": "uint256",
                  "name": "deadline",
                  "type": "uint256"
                }
              ],
              "internalType": "struct DataTypes.EIP712Signature",
              "name": "sig",
              "type": "tuple"
            }
          ],
          "internalType": "struct DataTypes.CollectWithSigData",
          "name": "vars",
          "type": "tuple"
        }
      ],
      "name": "collectWithSig",
      "outputs": [],
      "stateMutability": "nonpayable",
      "type": "function"
    },
    {
      "inputs": [
        {
          "components": [
            {
              "internalType": "uint256",
              "name": "profileId",
              "type": "uint256"
            },
            {
              "internalType": "string",
              "name": "contentURI",
              "type": "string"
            },
            {
              "internalType": "uint256",
              "name": "profileIdPointed",
              "type": "uint256"
            },
            {
              "internalType": "uint256",
              "name": "pubIdPointed",
              "type": "uint256"
            },
            {
              "internalType": "address",
              "name": "collectModule",
              "type": "address"
            },
            {
              "internalType": "bytes",
              "name": "collectModuleData",
              "type": "bytes"
            },
            {
              "internalType": "address",
              "name": "referenceModule",
              "type": "address"
            },
            {
              "internalType": "bytes",
              "name": "referenceModuleData",
              "type": "bytes"
            }
          ],
          "internalType": "struct DataTypes.CommentData",
          "name": "vars",
          "type": "tuple"
        }
      ],
      "name": "comment",
      "outputs": [],
      "stateMutability": "nonpayable",
      "type": "function"
    },
    {
      "inputs": [
        {
          "components": [
            {
              "internalType": "uint256",
              "name": "profileId",
              "type": "uint256"
            },
            {
              "internalType": "string",
              "name": "contentURI",
              "type": "string"
            },
            {
              "internalType": "uint256",
              "name": "profileIdPointed",
              "type": "uint256"
            },
            {
              "internalType": "uint256",
              "name": "pubIdPointed",
              "type": "uint256"
            },
            {
              "internalType": "address",
              "name": "collectModule",
              "type": "address"
            },
            {
              "internalType": "bytes",
              "name": "collectModuleData",
              "type": "bytes"
            },
            {
              "internalType": "address",
              "name": "referenceModule",
              "type": "address"
            },
            {
              "internalType": "bytes",
              "name": "referenceModuleData",
              "type": "bytes"
            },
            {
              "components": [
                {
                  "internalType": "uint8",
                  "name": "v",
                  "type": "uint8"
                },
                {
                  "internalType": "bytes32",
                  "name": "r",
                  "type": "bytes32"
                },
                {
                  "internalType": "bytes32",
                  "name": "s",
                  "type": "bytes32"
                },
                {
                  "internalType": "uint256",
                  "name": "deadline",
                  "type": "uint256"
                }
              ],
              "internalType": "struct DataTypes.EIP712Signature",
              "name": "sig",
              "type": "tuple"
            }
          ],
          "internalType": "struct DataTypes.CommentWithSigData",
          "name": "vars",
          "type": "tuple"
        }
      ],
      "name": "commentWithSig",
      "outputs": [],
      "stateMutability": "nonpayable",
      "type": "function"
    },
    {
      "inputs": [
        {
          "components": [
            {
              "internalType": "address",
              "name": "to",
              "type": "address"
            },
            {
              "internalType": "string",
              "name": "handle",
              "type": "string"
            },
            {
              "internalType": "string",
              "name": "imageURI",
              "type": "string"
            },
            {
              "internalType": "address",
              "name": "followModule",
              "type": "address"
            },
            {
              "internalType": "bytes",
              "name": "followModuleData",
              "type": "bytes"
            },
            {
              "internalType": "string",
              "name": "followNFTURI",
              "type": "string"
            }
          ],
          "internalType": "struct DataTypes.CreateProfileData",
          "name": "vars",
          "type": "tuple"
        }
      ],
      "name": "createProfile",
      "outputs": [],
      "stateMutability": "nonpayable",
      "type": "function"
    },
    {
      "inputs": [
        {
          "internalType": "address",
          "name": "wallet",
          "type": "address"
        }
      ],
      "name": "defaultProfile",
      "outputs": [
        {
          "internalType": "uint256",
          "name": "",
          "type": "uint256"
        }
      ],
      "stateMutability": "view",
      "type": "function"
    },
    {
      "inputs": [
        {
          "internalType": "uint256",
          "name": "profileId",
          "type": "uint256"
        },
        {
          "internalType": "uint256",
          "name": "pubId",
          "type": "uint256"
        },
        {
          "internalType": "uint256",
          "name": "collectNFTId",
          "type": "uint256"
        },
        {
          "internalType": "address",
          "name": "from",
          "type": "address"
        },
        {
          "internalType": "address",
          "name": "to",
          "type": "address"
        }
      ],
      "name": "emitCollectNFTTransferEvent",
      "outputs": [],
      "stateMutability": "nonpayable",
      "type": "function"
    },
    {
      "inputs": [
        {
          "internalType": "uint256",
          "name": "profileId",
          "type": "uint256"
        },
        {
          "internalType": "uint256",
          "name": "followNFTId",
          "type": "uint256"
        },
        {
          "internalType": "address",
          "name": "from",
          "type": "address"
        },
        {
          "internalType": "address",
          "name": "to",
          "type": "address"
        }
      ],
      "name": "emitFollowNFTTransferEvent",
      "outputs": [],
      "stateMutability": "nonpayable",
      "type": "function"
    },
    {
      "inputs": [
        {
          "internalType": "uint256",
          "name": "tokenId",
          "type": "uint256"
        }
      ],
      "name": "exists",
      "outputs": [
        {
          "internalType": "bool",
          "name": "",
          "type": "bool"
        }
      ],
      "stateMutability": "view",
      "type": "function"
    },
    {
      "inputs": [
        {
          "internalType": "uint256[]",
          "name": "profileIds",
          "type": "uint256[]"
        },
        {
          "internalType": "bytes[]",
          "name": "datas",
          "type": "bytes[]"
        }
      ],
      "name": "follow",
      "outputs": [],
      "stateMutability": "nonpayable",
      "type": "function"
    },
    {
      "inputs": [
        {
          "components": [
            {
              "internalType": "address",
              "name": "follower",
              "type": "address"
            },
            {
              "internalType": "uint256[]",
              "name": "profileIds",
              "type": "uint256[]"
            },
            {
              "internalType": "bytes[]",
              "name": "datas",
              "type": "bytes[]"
            },
            {
              "components": [
                {
                  "internalType": "uint8",
                  "name": "v",
                  "type": "uint8"
                },
                {
                  "internalType": "bytes32",
                  "name": "r",
                  "type": "bytes32"
                },
                {
                  "internalType": "bytes32",
                  "name": "s",
                  "type": "bytes32"
                },
                {
                  "internalType": "uint256",
                  "name": "deadline",
                  "type": "uint256"
                }
              ],
              "internalType": "struct DataTypes.EIP712Signature",
              "name": "sig",
              "type": "tuple"
            }
          ],
          "internalType": "struct DataTypes.FollowWithSigData",
          "name": "vars",
          "type": "tuple"
        }
      ],
      "name": "followWithSig",
      "outputs": [],
      "stateMutability": "nonpayable",
      "type": "function"
    },
    {
      "inputs": [
        {
          "internalType": "uint256",
          "name": "tokenId",
          "type": "uint256"
        }
      ],
      "name": "getApproved",
      "outputs": [
        {
          "internalType": "address",
          "name": "",
          "type": "address"
        }
      ],
      "stateMutability": "view",
      "type": "function"
    },
    {
      "inputs": [
        {
          "internalType": "uint256",
          "name": "profileId",
          "type": "uint256"
        },
        {
          "internalType": "uint256",
          "name": "pubId",
          "type": "uint256"
        }
      ],
      "name": "getCollectModule",
      "outputs": [
        {
          "internalType": "address",
          "name": "",
          "type": "address"
        }
      ],
      "stateMutability": "view",
      "type": "function"
    },
    {
      "inputs": [
        {
          "internalType": "uint256",
          "name": "profileId",
          "type": "uint256"
        },
        {
          "internalType": "uint256",
          "name": "pubId",
          "type": "uint256"
        }
      ],
      "name": "getCollectNFT",
      "outputs": [
        {
          "internalType": "address",
          "name": "",
          "type": "address"
        }
      ],
      "stateMutability": "view",
      "type": "function"
    },
    {
      "inputs": [
        {
          "internalType": "uint256",
          "name": "profileId",
          "type": "uint256"
        },
        {
          "internalType": "uint256",
          "name": "pubId",
          "type": "uint256"
        }
      ],
      "name": "getContentURI",
      "outputs": [
        {
          "internalType": "string",
          "name": "",
          "type": "string"
        }
      ],
      "stateMutability": "view",
      "type": "function"
    },
    {
      "inputs": [
        {
          "internalType": "uint256",
          "name": "profileId",
          "type": "uint256"
        }
      ],
      "name": "getDispatcher",
      "outputs": [
        {
          "internalType": "address",
          "name": "",
          "type": "address"
        }
      ],
      "stateMutability": "view",
      "type": "function"
    },
    {
      "inputs": [],
      "name": "getDomainSeparator",
      "outputs": [
        {
          "internalType": "bytes32",
          "name": "",
          "type": "bytes32"
        }
      ],
      "stateMutability": "view",
      "type": "function"
    },
    {
      "inputs": [
        {
          "internalType": "uint256",
          "name": "profileId",
          "type": "uint256"
        }
      ],
      "name": "getFollowModule",
      "outputs": [
        {
          "internalType": "address",
          "name": "",
          "type": "address"
        }
      ],
      "stateMutability": "view",
      "type": "function"
    },
    {
      "inputs": [
        {
          "internalType": "uint256",
          "name": "profileId",
          "type": "uint256"
        }
      ],
      "name": "getFollowNFT",
      "outputs": [
        {
          "internalType": "address",
          "name": "",
          "type": "address"
        }
      ],
      "stateMutability": "view",
      "type": "function"
    },
    {
      "inputs": [
        {
          "internalType": "uint256",
          "name": "profileId",
          "type": "uint256"
        }
      ],
      "name": "getFollowNFTURI",
      "outputs": [
        {
          "internalType": "string",
          "name": "",
          "type": "string"
        }
      ],
      "stateMutability": "view",
      "type": "function"
    },
    {
      "inputs": [],
      "name": "getGovernance",
      "outputs": [
        {
          "internalType": "address",
          "name": "",
          "type": "address"
        }
      ],
      "stateMutability": "view",
      "type": "function"
    },
    {
      "inputs": [
        {
          "internalType": "uint256",
          "name": "profileId",
          "type": "uint256"
        }
      ],
      "name": "getHandle",
      "outputs": [
        {
          "internalType": "string",
          "name": "",
          "type": "string"
        }
      ],
      "stateMutability": "view",
      "type": "function"
    },
    {
      "inputs": [
        {
          "internalType": "uint256",
          "name": "profileId",
          "type": "uint256"
        }
      ],
      "name": "getProfile",
      "outputs": [
        {
          "components": [
            {
              "internalType": "uint256",
              "name": "pubCount",
              "type": "uint256"
            },
            {
              "internalType": "address",
              "name": "followModule",
              "type": "address"
            },
            {
              "internalType": "address",
              "name": "followNFT",
              "type": "address"
            },
            {
              "internalType": "string",
              "name": "handle",
              "type": "string"
            },
            {
              "internalType": "string",
              "name": "imageURI",
              "type": "string"
            },
            {
              "internalType": "string",
              "name": "followNFTURI",
              "type": "string"
            }
          ],
          "internalType": "struct DataTypes.ProfileStruct",
          "name": "",
          "type": "tuple"
        }
      ],
      "stateMutability": "view",
      "type": "function"
    },
    {
      "inputs": [
        {
          "internalType": "string",
          "name": "handle",
          "type": "string"
        }
      ],
      "name": "getProfileIdByHandle",
      "outputs": [
        {
          "internalType": "uint256",
          "name": "",
          "type": "uint256"
        }
      ],
      "stateMutability": "view",
      "type": "function"
    },
    {
      "inputs": [
        {
          "internalType": "uint256",
          "name": "profileId",
          "type": "uint256"
        },
        {
          "internalType": "uint256",
          "name": "pubId",
          "type": "uint256"
        }
      ],
      "name": "getPub",
      "outputs": [
        {
          "components": [
            {
              "internalType": "uint256",
              "name": "profileIdPointed",
              "type": "uint256"
            },
            {
              "internalType": "uint256",
              "name": "pubIdPointed",
              "type": "uint256"
            },
            {
              "internalType": "string",
              "name": "contentURI",
              "type": "string"
            },
            {
              "internalType": "address",
              "name": "referenceModule",
              "type": "address"
            },
            {
              "internalType": "address",
              "name": "collectModule",
              "type": "address"
            },
            {
              "internalType": "address",
              "name": "collectNFT",
              "type": "address"
            }
          ],
          "internalType": "struct DataTypes.PublicationStruct",
          "name": "",
          "type": "tuple"
        }
      ],
      "stateMutability": "view",
      "type": "function"
    },
    {
      "inputs": [
        {
          "internalType": "uint256",
          "name": "profileId",
          "type": "uint256"
        }
      ],
      "name": "getPubCount",
      "outputs": [
        {
          "internalType": "uint256",
          "name": "",
          "type": "uint256"
        }
      ],
      "stateMutability": "view",
      "type": "function"
    },
    {
      "inputs": [
        {
          "internalType": "uint256",
          "name": "profileId",
          "type": "uint256"
        },
        {
          "internalType": "uint256",
          "name": "pubId",
          "type": "uint256"
        }
      ],
      "name": "getPubPointer",
      "outputs": [
        {
          "internalType": "uint256",
          "name": "",
          "type": "uint256"
        },
        {
          "internalType": "uint256",
          "name": "",
          "type": "uint256"
        }
      ],
      "stateMutability": "view",
      "type": "function"
    },
    {
      "inputs": [
        {
          "internalType": "uint256",
          "name": "profileId",
          "type": "uint256"
        },
        {
          "internalType": "uint256",
          "name": "pubId",
          "type": "uint256"
        }
      ],
      "name": "getPubType",
      "outputs": [
        {
          "internalType": "enum DataTypes.PubType",
          "name": "",
          "type": "uint8"
        }
      ],
      "stateMutability": "view",
      "type": "function"
    },
    {
      "inputs": [
        {
          "internalType": "uint256",
          "name": "profileId",
          "type": "uint256"
        },
        {
          "internalType": "uint256",
          "name": "pubId",
          "type": "uint256"
        }
      ],
      "name": "getReferenceModule",
      "outputs": [
        {
          "internalType": "address",
          "name": "",
          "type": "address"
        }
      ],
      "stateMutability": "view",
      "type": "function"
    },
    {
      "inputs": [],
      "name": "getState",
      "outputs": [
        {
          "internalType": "enum DataTypes.ProtocolState",
          "name": "",
          "type": "uint8"
        }
      ],
      "stateMutability": "view",
      "type": "function"
    },
    {
      "inputs": [
        {
          "internalType": "string",
          "name": "name",
          "type": "string"
        },
        {
          "internalType": "string",
          "name": "symbol",
          "type": "string"
        },
        {
          "internalType": "address",
          "name": "newGovernance",
          "type": "address"
        }
      ],
      "name": "initialize",
      "outputs": [],
      "stateMutability": "nonpayable",
      "type": "function"
    },
    {
      "inputs": [
        {
          "internalType": "address",
          "name": "owner",
          "type": "address"
        },
        {
          "internalType": "address",
          "name": "operator",
          "type": "address"
        }
      ],
      "name": "isApprovedForAll",
      "outputs": [
        {
          "internalType": "bool",
          "name": "",
          "type": "bool"
        }
      ],
      "stateMutability": "view",
      "type": "function"
    },
    {
      "inputs": [
        {
          "internalType": "address",
          "name": "collectModule",
          "type": "address"
        }
      ],
      "name": "isCollectModuleWhitelisted",
      "outputs": [
        {
          "internalType": "bool",
          "name": "",
          "type": "bool"
        }
      ],
      "stateMutability": "view",
      "type": "function"
    },
    {
      "inputs": [
        {
          "internalType": "address",
          "name": "followModule",
          "type": "address"
        }
      ],
      "name": "isFollowModuleWhitelisted",
      "outputs": [
        {
          "internalType": "bool",
          "name": "",
          "type": "bool"
        }
      ],
      "stateMutability": "view",
      "type": "function"
    },
    {
      "inputs": [
        {
          "internalType": "address",
          "name": "profileCreator",
          "type": "address"
        }
      ],
      "name": "isProfileCreatorWhitelisted",
      "outputs": [
        {
          "internalType": "bool",
          "name": "",
          "type": "bool"
        }
      ],
      "stateMutability": "view",
      "type": "function"
    },
    {
      "inputs": [
        {
          "internalType": "address",
          "name": "referenceModule",
          "type": "address"
        }
      ],
      "name": "isReferenceModuleWhitelisted",
      "outputs": [
        {
          "internalType": "bool",
          "name": "",
          "type": "bool"
        }
      ],
      "stateMutability": "view",
      "type": "function"
    },
    {
      "inputs": [
        {
          "internalType": "uint256",
          "name": "tokenId",
          "type": "uint256"
        }
      ],
      "name": "mintTimestampOf",
      "outputs": [
        {
          "internalType": "uint256",
          "name": "",
          "type": "uint256"
        }
      ],
      "stateMutability": "view",
      "type": "function"
    },
    {
      "inputs": [
        {
          "components": [
            {
              "internalType": "uint256",
              "name": "profileId",
              "type": "uint256"
            },
            {
              "internalType": "uint256",
              "name": "profileIdPointed",
              "type": "uint256"
            },
            {
              "internalType": "uint256",
              "name": "pubIdPointed",
              "type": "uint256"
            },
            {
              "internalType": "address",
              "name": "referenceModule",
              "type": "address"
            },
            {
              "internalType": "bytes",
              "name": "referenceModuleData",
              "type": "bytes"
            }
          ],
          "internalType": "struct DataTypes.MirrorData",
          "name": "vars",
          "type": "tuple"
        }
      ],
      "name": "mirror",
      "outputs": [],
      "stateMutability": "nonpayable",
      "type": "function"
    },
    {
      "inputs": [
        {
          "components": [
            {
              "internalType": "uint256",
              "name": "profileId",
              "type": "uint256"
            },
            {
              "internalType": "uint256",
              "name": "profileIdPointed",
              "type": "uint256"
            },
            {
              "internalType": "uint256",
              "name": "pubIdPointed",
              "type": "uint256"
            },
            {
              "internalType": "address",
              "name": "referenceModule",
              "type": "address"
            },
            {
              "internalType": "bytes",
              "name": "referenceModuleData",
              "type": "bytes"
            },
            {
              "components": [
                {
                  "internalType": "uint8",
                  "name": "v",
                  "type": "uint8"
                },
                {
                  "internalType": "bytes32",
                  "name": "r",
                  "type": "bytes32"
                },
                {
                  "internalType": "bytes32",
                  "name": "s",
                  "type": "bytes32"
                },
                {
                  "internalType": "uint256",
                  "name": "deadline",
                  "type": "uint256"
                }
              ],
              "internalType": "struct DataTypes.EIP712Signature",
              "name": "sig",
              "type": "tuple"
            }
          ],
          "internalType": "struct DataTypes.MirrorWithSigData",
          "name": "vars",
          "type": "tuple"
        }
      ],
      "name": "mirrorWithSig",
      "outputs": [],
      "stateMutability": "nonpayable",
      "type": "function"
    },
    {
      "inputs": [],
      "name": "name",
      "outputs": [
        {
          "internalType": "string",
          "name": "",
          "type": "string"
        }
      ],
      "stateMutability": "view",
      "type": "function"
    },
    {
      "inputs": [
        {
          "internalType": "uint256",
          "name": "tokenId",
          "type": "uint256"
        }
      ],
      "name": "ownerOf",
      "outputs": [
        {
          "internalType": "address",
          "name": "",
          "type": "address"
        }
      ],
      "stateMutability": "view",
      "type": "function"
    },
    {
      "inputs": [
        {
          "internalType": "address",
          "name": "spender",
          "type": "address"
        },
        {
          "internalType": "uint256",
          "name": "tokenId",
          "type": "uint256"
        },
        {
          "components": [
            {
              "internalType": "uint8",
              "name": "v",
              "type": "uint8"
            },
            {
              "internalType": "bytes32",
              "name": "r",
              "type": "bytes32"
            },
            {
              "internalType": "bytes32",
              "name": "s",
              "type": "bytes32"
            },
            {
              "internalType": "uint256",
              "name": "deadline",
              "type": "uint256"
            }
          ],
          "internalType": "struct DataTypes.EIP712Signature",
          "name": "sig",
          "type": "tuple"
        }
      ],
      "name": "permit",
      "outputs": [],
      "stateMutability": "nonpayable",
      "type": "function"
    },
    {
      "inputs": [
        {
          "internalType": "address",
          "name": "owner",
          "type": "address"
        },
        {
          "internalType": "address",
          "name": "operator",
          "type": "address"
        },
        {
          "internalType": "bool",
          "name": "approved",
          "type": "bool"
        },
        {
          "components": [
            {
              "internalType": "uint8",
              "name": "v",
              "type": "uint8"
            },
            {
              "internalType": "bytes32",
              "name": "r",
              "type": "bytes32"
            },
            {
              "internalType": "bytes32",
              "name": "s",
              "type": "bytes32"
            },
            {
              "internalType": "uint256",
              "name": "deadline",
              "type": "uint256"
            }
          ],
          "internalType": "struct DataTypes.EIP712Signature",
          "name": "sig",
          "type": "tuple"
        }
      ],
      "name": "permitForAll",
      "outputs": [],
      "stateMutability": "nonpayable",
      "type": "function"
    },
    {
      "inputs": [
        {
          "components": [
            {
              "internalType": "uint256",
              "name": "profileId",
              "type": "uint256"
            },
            {
              "internalType": "string",
              "name": "contentURI",
              "type": "string"
            },
            {
              "internalType": "address",
              "name": "collectModule",
              "type": "address"
            },
            {
              "internalType": "bytes",
              "name": "collectModuleData",
              "type": "bytes"
            },
            {
              "internalType": "address",
              "name": "referenceModule",
              "type": "address"
            },
            {
              "internalType": "bytes",
              "name": "referenceModuleData",
              "type": "bytes"
            }
          ],
          "internalType": "struct DataTypes.PostData",
          "name": "vars",
          "type": "tuple"
        }
      ],
      "name": "post",
      "outputs": [],
      "stateMutability": "nonpayable",
      "type": "function"
    },
    {
      "inputs": [
        {
          "components": [
            {
              "internalType": "uint256",
              "name": "profileId",
              "type": "uint256"
            },
            {
              "internalType": "string",
              "name": "contentURI",
              "type": "string"
            },
            {
              "internalType": "address",
              "name": "collectModule",
              "type": "address"
            },
            {
              "internalType": "bytes",
              "name": "collectModuleData",
              "type": "bytes"
            },
            {
              "internalType": "address",
              "name": "referenceModule",
              "type": "address"
            },
            {
              "internalType": "bytes",
              "name": "referenceModuleData",
              "type": "bytes"
            },
            {
              "components": [
                {
                  "internalType": "uint8",
                  "name": "v",
                  "type": "uint8"
                },
                {
                  "internalType": "bytes32",
                  "name": "r",
                  "type": "bytes32"
                },
                {
                  "internalType": "bytes32",
                  "name": "s",
                  "type": "bytes32"
                },
                {
                  "internalType": "uint256",
                  "name": "deadline",
                  "type": "uint256"
                }
              ],
              "internalType": "struct DataTypes.EIP712Signature",
              "name": "sig",
              "type": "tuple"
            }
          ],
          "internalType": "struct DataTypes.PostWithSigData",
          "name": "vars",
          "type": "tuple"
        }
      ],
      "name": "postWithSig",
      "outputs": [],
      "stateMutability": "nonpayable",
      "type": "function"
    },
    {
      "inputs": [
        {
          "internalType": "address",
          "name": "from",
          "type": "address"
        },
        {
          "internalType": "address",
          "name": "to",
          "type": "address"
        },
        {
          "internalType": "uint256",
          "name": "tokenId",
          "type": "uint256"
        }
      ],
      "name": "safeTransferFrom",
      "outputs": [],
      "stateMutability": "nonpayable",
      "type": "function"
    },
    {
      "inputs": [
        {
          "internalType": "address",
          "name": "from",
          "type": "address"
        },
        {
          "internalType": "address",
          "name": "to",
          "type": "address"
        },
        {
          "internalType": "uint256",
          "name": "tokenId",
          "type": "uint256"
        },
        {
          "internalType": "bytes",
          "name": "_data",
          "type": "bytes"
        }
      ],
      "name": "safeTransferFrom",
      "outputs": [],
      "stateMutability": "nonpayable",
      "type": "function"
    },
    {
      "inputs": [
        {
          "internalType": "address",
          "name": "operator",
          "type": "address"
        },
        {
          "internalType": "bool",
          "name": "approved",
          "type": "bool"
        }
      ],
      "name": "setApprovalForAll",
      "outputs": [],
      "stateMutability": "nonpayable",
      "type": "function"
    },
    {
      "inputs": [
        {
          "internalType": "uint256",
          "name": "profileId",
          "type": "uint256"
        }
      ],
      "name": "setDefaultProfile",
      "outputs": [],
      "stateMutability": "nonpayable",
      "type": "function"
    },
    {
      "inputs": [
        {
          "components": [
            {
              "internalType": "address",
              "name": "wallet",
              "type": "address"
            },
            {
              "internalType": "uint256",
              "name": "profileId",
              "type": "uint256"
            },
            {
              "components": [
                {
                  "internalType": "uint8",
                  "name": "v",
                  "type": "uint8"
                },
                {
                  "internalType": "bytes32",
                  "name": "r",
                  "type": "bytes32"
                },
                {
                  "internalType": "bytes32",
                  "name": "s",
                  "type": "bytes32"
                },
                {
                  "internalType": "uint256",
                  "name": "deadline",
                  "type": "uint256"
                }
              ],
              "internalType": "struct DataTypes.EIP712Signature",
              "name": "sig",
              "type": "tuple"
            }
          ],
          "internalType": "struct DataTypes.SetDefaultProfileWithSigData",
          "name": "vars",
          "type": "tuple"
        }
      ],
      "name": "setDefaultProfileWithSig",
      "outputs": [],
      "stateMutability": "nonpayable",
      "type": "function"
    },
    {
      "inputs": [
        {
          "internalType": "uint256",
          "name": "profileId",
          "type": "uint256"
        },
        {
          "internalType": "address",
          "name": "dispatcher",
          "type": "address"
        }
      ],
      "name": "setDispatcher",
      "outputs": [],
      "stateMutability": "nonpayable",
      "type": "function"
    },
    {
      "inputs": [
        {
          "components": [
            {
              "internalType": "uint256",
              "name": "profileId",
              "type": "uint256"
            },
            {
              "internalType": "address",
              "name": "dispatcher",
              "type": "address"
            },
            {
              "components": [
                {
                  "internalType": "uint8",
                  "name": "v",
                  "type": "uint8"
                },
                {
                  "internalType": "bytes32",
                  "name": "r",
                  "type": "bytes32"
                },
                {
                  "internalType": "bytes32",
                  "name": "s",
                  "type": "bytes32"
                },
                {
                  "internalType": "uint256",
                  "name": "deadline",
                  "type": "uint256"
                }
              ],
              "internalType": "struct DataTypes.EIP712Signature",
              "name": "sig",
              "type": "tuple"
            }
          ],
          "internalType": "struct DataTypes.SetDispatcherWithSigData",
          "name": "vars",
          "type": "tuple"
        }
      ],
      "name": "setDispatcherWithSig",
      "outputs": [],
      "stateMutability": "nonpayable",
      "type": "function"
    },
    {
      "inputs": [
        {
          "internalType": "address",
          "name": "newEmergencyAdmin",
          "type": "address"
        }
      ],
      "name": "setEmergencyAdmin",
      "outputs": [],
      "stateMutability": "nonpayable",
      "type": "function"
    },
    {
      "inputs": [
        {
          "internalType": "uint256",
          "name": "profileId",
          "type": "uint256"
        },
        {
          "internalType": "address",
          "name": "followModule",
          "type": "address"
        },
        {
          "internalType": "bytes",
          "name": "followModuleData",
          "type": "bytes"
        }
      ],
      "name": "setFollowModule",
      "outputs": [],
      "stateMutability": "nonpayable",
      "type": "function"
    },
    {
      "inputs": [
        {
          "components": [
            {
              "internalType": "uint256",
              "name": "profileId",
              "type": "uint256"
            },
            {
              "internalType": "address",
              "name": "followModule",
              "type": "address"
            },
            {
              "internalType": "bytes",
              "name": "followModuleData",
              "type": "bytes"
            },
            {
              "components": [
                {
                  "internalType": "uint8",
                  "name": "v",
                  "type": "uint8"
                },
                {
                  "internalType": "bytes32",
                  "name": "r",
                  "type": "bytes32"
                },
                {
                  "internalType": "bytes32",
                  "name": "s",
                  "type": "bytes32"
                },
                {
                  "internalType": "uint256",
                  "name": "deadline",
                  "type": "uint256"
                }
              ],
              "internalType": "struct DataTypes.EIP712Signature",
              "name": "sig",
              "type": "tuple"
            }
          ],
          "internalType": "struct DataTypes.SetFollowModuleWithSigData",
          "name": "vars",
          "type": "tuple"
        }
      ],
      "name": "setFollowModuleWithSig",
      "outputs": [],
      "stateMutability": "nonpayable",
      "type": "function"
    },
    {
      "inputs": [
        {
          "internalType": "uint256",
          "name": "profileId",
          "type": "uint256"
        },
        {
          "internalType": "string",
          "name": "followNFTURI",
          "type": "string"
        }
      ],
      "name": "setFollowNFTURI",
      "outputs": [],
      "stateMutability": "nonpayable",
      "type": "function"
    },
    {
      "inputs": [
        {
          "components": [
            {
              "internalType": "uint256",
              "name": "profileId",
              "type": "uint256"
            },
            {
              "internalType": "string",
              "name": "followNFTURI",
              "type": "string"
            },
            {
              "components": [
                {
                  "internalType": "uint8",
                  "name": "v",
                  "type": "uint8"
                },
                {
                  "internalType": "bytes32",
                  "name": "r",
                  "type": "bytes32"
                },
                {
                  "internalType": "bytes32",
                  "name": "s",
                  "type": "bytes32"
                },
                {
                  "internalType": "uint256",
                  "name": "deadline",
                  "type": "uint256"
                }
              ],
              "internalType": "struct DataTypes.EIP712Signature",
              "name": "sig",
              "type": "tuple"
            }
          ],
          "internalType": "struct DataTypes.SetFollowNFTURIWithSigData",
          "name": "vars",
          "type": "tuple"
        }
      ],
      "name": "setFollowNFTURIWithSig",
      "outputs": [],
      "stateMutability": "nonpayable",
      "type": "function"
    },
    {
      "inputs": [
        {
          "internalType": "address",
          "name": "newGovernance",
          "type": "address"
        }
      ],
      "name": "setGovernance",
      "outputs": [],
      "stateMutability": "nonpayable",
      "type": "function"
    },
    {
      "inputs": [
        {
          "internalType": "uint256",
          "name": "profileId",
          "type": "uint256"
        },
        {
          "internalType": "string",
          "name": "imageURI",
          "type": "string"
        }
      ],
      "name": "setProfileImageURI",
      "outputs": [],
      "stateMutability": "nonpayable",
      "type": "function"
    },
    {
      "inputs": [
        {
          "components": [
            {
              "internalType": "uint256",
              "name": "profileId",
              "type": "uint256"
            },
            {
              "internalType": "string",
              "name": "imageURI",
              "type": "string"
            },
            {
              "components": [
                {
                  "internalType": "uint8",
                  "name": "v",
                  "type": "uint8"
                },
                {
                  "internalType": "bytes32",
                  "name": "r",
                  "type": "bytes32"
                },
                {
                  "internalType": "bytes32",
                  "name": "s",
                  "type": "bytes32"
                },
                {
                  "internalType": "uint256",
                  "name": "deadline",
                  "type": "uint256"
                }
              ],
              "internalType": "struct DataTypes.EIP712Signature",
              "name": "sig",
              "type": "tuple"
            }
          ],
          "internalType": "struct DataTypes.SetProfileImageURIWithSigData",
          "name": "vars",
          "type": "tuple"
        }
      ],
      "name": "setProfileImageURIWithSig",
      "outputs": [],
      "stateMutability": "nonpayable",
      "type": "function"
    },
    {
      "inputs": [
        {
          "internalType": "enum DataTypes.ProtocolState",
          "name": "newState",
          "type": "uint8"
        }
      ],
      "name": "setState",
      "outputs": [],
      "stateMutability": "nonpayable",
      "type": "function"
    },
    {
      "inputs": [
        {
          "internalType": "address",
          "name": "",
          "type": "address"
        }
      ],
      "name": "sigNonces",
      "outputs": [
        {
          "internalType": "uint256",
          "name": "",
          "type": "uint256"
        }
      ],
      "stateMutability": "view",
      "type": "function"
    },
    {
      "inputs": [
        {
          "internalType": "bytes4",
          "name": "interfaceId",
          "type": "bytes4"
        }
      ],
      "name": "supportsInterface",
      "outputs": [
        {
          "internalType": "bool",
          "name": "",
          "type": "bool"
        }
      ],
      "stateMutability": "view",
      "type": "function"
    },
    {
      "inputs": [],
      "name": "symbol",
      "outputs": [
        {
          "internalType": "string",
          "name": "",
          "type": "string"
        }
      ],
      "stateMutability": "view",
      "type": "function"
    },
    {
      "inputs": [
        {
          "internalType": "uint256",
          "name": "index",
          "type": "uint256"
        }
      ],
      "name": "tokenByIndex",
      "outputs": [
        {
          "internalType": "uint256",
          "name": "",
          "type": "uint256"
        }
      ],
      "stateMutability": "view",
      "type": "function"
    },
    {
      "inputs": [
        {
          "internalType": "uint256",
          "name": "tokenId",
          "type": "uint256"
        }
      ],
      "name": "tokenDataOf",
      "outputs": [
        {
          "components": [
            {
              "internalType": "address",
              "name": "owner",
              "type": "address"
            },
            {
              "internalType": "uint96",
              "name": "mintTimestamp",
              "type": "uint96"
            }
          ],
          "internalType": "struct IERC721Time.TokenData",
          "name": "",
          "type": "tuple"
        }
      ],
      "stateMutability": "view",
      "type": "function"
    },
    {
      "inputs": [
        {
          "internalType": "address",
          "name": "owner",
          "type": "address"
        },
        {
          "internalType": "uint256",
          "name": "index",
          "type": "uint256"
        }
      ],
      "name": "tokenOfOwnerByIndex",
      "outputs": [
        {
          "internalType": "uint256",
          "name": "",
          "type": "uint256"
        }
      ],
      "stateMutability": "view",
      "type": "function"
    },
    {
      "inputs": [
        {
          "internalType": "uint256",
          "name": "tokenId",
          "type": "uint256"
        }
      ],
      "name": "tokenURI",
      "outputs": [
        {
          "internalType": "string",
          "name": "",
          "type": "string"
        }
      ],
      "stateMutability": "view",
      "type": "function"
    },
    {
      "inputs": [],
      "name": "totalSupply",
      "outputs": [
        {
          "internalType": "uint256",
          "name": "",
          "type": "uint256"
        }
      ],
      "stateMutability": "view",
      "type": "function"
    },
    {
      "inputs": [
        {
          "internalType": "address",
          "name": "from",
          "type": "address"
        },
        {
          "internalType": "address",
          "name": "to",
          "type": "address"
        },
        {
          "internalType": "uint256",
          "name": "tokenId",
          "type": "uint256"
        }
      ],
      "name": "transferFrom",
      "outputs": [],
      "stateMutability": "nonpayable",
      "type": "function"
    },
    {
      "inputs": [
        {
          "internalType": "address",
          "name": "collectModule",
          "type": "address"
        },
        {
          "internalType": "bool",
          "name": "whitelist",
          "type": "bool"
        }
      ],
      "name": "whitelistCollectModule",
      "outputs": [],
      "stateMutability": "nonpayable",
      "type": "function"
    },
    {
      "inputs": [
        {
          "internalType": "address",
          "name": "followModule",
          "type": "address"
        },
        {
          "internalType": "bool",
          "name": "whitelist",
          "type": "bool"
        }
      ],
      "name": "whitelistFollowModule",
      "outputs": [],
      "stateMutability": "nonpayable",
      "type": "function"
    },
    {
      "inputs": [
        {
          "internalType": "address",
          "name": "profileCreator",
          "type": "address"
        },
        {
          "internalType": "bool",
          "name": "whitelist",
          "type": "bool"
        }
      ],
      "name": "whitelistProfileCreator",
      "outputs": [],
      "stateMutability": "nonpayable",
      "type": "function"
    },
    {
      "inputs": [
        {
          "internalType": "address",
          "name": "referenceModule",
          "type": "address"
        },
        {
          "internalType": "bool",
          "name": "whitelist",
          "type": "bool"
        }
      ],
      "name": "whitelistReferenceModule",
      "outputs": [],
      "stateMutability": "nonpayable",
      "type": "function"
    }
  ],
  "bytecode": "0x60e06040526000600b553480156200001657600080fd5b5060405162005ed238038062005ed2833981016040819052620000399162000072565b306080526001600160a01b0391821660a0521660c052620000aa565b80516001600160a01b03811681146200006d57600080fd5b919050565b600080604083850312156200008657600080fd5b620000918362000055565b9150620000a16020840162000055565b90509250929050565b60805160a05160c051615dea620000e860003960008181611c4101526125ba015260008181612027015261339101526000610d420152615dea6000f3fe608060405234801561001057600080fd5b506004361061046a5760003560e01c806389028a131161024c578063bd12d3f011610146578063dd69cdb1116100c3578063f08f4f6411610087578063f08f4f6414610bb2578063f1b2f8bc14610bd2578063f990ccd714610be5578063fb78ae6c14610c05578063ffea138e14610c1857600080fd5b8063dd69cdb114610b35578063e985e9c514610b48578063ec81d19414610b84578063ecfab8fa14610b97578063ed24911d14610baa57600080fd5b8063c6b5d06c1161010a578063c6b5d06c14610ab0578063c736c99014610ac3578063c87b56dd14610ae3578063d923d20c14610af6578063dc21725314610b2257600080fd5b8063bd12d3f014610a24578063bdfdd4bc14610a37578063bfbf0b4b14610a4a578063bfd24f4714610a5d578063c0da9bcd14610a7057600080fd5b8063a2c79772116101d4578063af05dd2211610198578063af05dd2214610988578063b48951e4146109b4578063b5a31496146109c7578063b7984c05146109da578063b88d4fde14610a1157600080fd5b8063a2c79772146108f7578063a6d8e1e41461090a578063a9ec65631461091d578063ab033ea914610949578063ad3e72bf1461095c57600080fd5b806392254a621161021b57806392254a621461088d57806395d89b41146108b6578063963ff141146108be5780639b84a14c146108d1578063a22cb465146108e457600080fd5b806389028a13146108285780638e204fb41461083b5780638e4fd6a9146108675780638f14b45f1461087a57600080fd5b80633b28b89f1161036857806356de96db116102e55780636dea40b3116102a95780636dea40b3146107c957806370a08231146107dc5780637ef67f99146107ef57806384114ad41461080257806386e2947b1461081557600080fd5b806356de96db1461073157806357ff49f6146107445780635ca3eebf1461077b5780636352211e146107a35780636a4e66d2146107b657600080fd5b80634f558e791161032c5780634f558e79146106985780634f6ccce7146106ab57806350ddf35c146106be57806352aaef55146106d1578063540528b91461070857600080fd5b80633b28b89f146106395780633b5081321461064c5780634187e4c51461065f57806342842e0e1461067257806342966c681461068557600080fd5b806320905506116103f657806331dcebe3116103ba57806331dcebe3146105c057806331fff07c146105d357806335da3394146105f3578063374c9473146106065780633a15ff071461061957600080fd5b8063209055061461056357806320fa728a1461057657806323b872dd14610589578063289b3c0d1461059c5780632f745c59146105ad57600080fd5b8063081812fc1161043d578063081812fc146104d4578063095ea7b3146104ff57806318160ddd146105125780631865c57d146105245780631cbb26201461053757600080fd5b806301ffc9a71461046f578063054871b81461049757806306fdde03146104ac578063077f224a146104c1575b600080fd5b61048261047d3660046148d1565b610c2b565b60405190151581526020015b60405180910390f35b6104aa6104a536600461492f565b610c56565b005b6104b4610cac565b60405161048e91906149d2565b6104aa6104cf366004614a01565b610d3e565b6104e76104e2366004614a81565b610dd8565b6040516001600160a01b03909116815260200161048e565b6104aa61050d366004614a9a565b610e72565b6008545b60405190815260200161048e565b600c5460ff1660405161048e9190614ada565b610482610545366004614af4565b6001600160a01b03166000908152600e602052604090205460ff1690565b6104aa610571366004614b1f565b610f83565b610516610584366004614b52565b610fee565b6104aa610597366004614b93565b611020565b6017546001600160a01b03166104e7565b6105166105bb366004614a9a565b611051565b6104aa6105ce366004614b1f565b6110e7565b6105e66105e1366004614bcf565b61114a565b60405161048e9190614bf1565b6104aa610601366004614af4565b6111d3565b6104b4610614366004614a81565b611240565b610516610627366004614a81565b60009081526013602052604090205490565b6104aa610647366004614c1d565b6112e5565b6104aa61065a366004614c51565b61148d565b6104aa61066d366004614b1f565b6116e2565b6104aa610680366004614b93565b611745565b6104aa610693366004614a81565b611760565b6104826106a6366004614a81565b61177d565b6105166106b9366004614a81565b61179c565b6105166106cc366004614a81565b61182f565b6104e76106df366004614bcf565b60009182526014602090815260408084209284529190529020600501546001600160a01b031690565b6104e7610716366004614a81565b6000908152601160205260409020546001600160a01b031690565b6104aa61073f366004614c8c565b6118c5565b6104e7610752366004614bcf565b60009182526014602090815260408084209284529190529020600401546001600160a01b031690565b61078e610789366004614bcf565b611912565b6040805192835260208301919091520161048e565b6104e76107b1366004614a81565b61193b565b6104aa6107c4366004614cad565b6119b2565b6104aa6107d7366004614ce7565b6119f5565b6105166107ea366004614af4565b611a8c565b6104aa6107fd366004614d52565b611b13565b6104aa610810366004614d8f565b611c00565b6104aa610823366004614dc9565b611c6f565b6104aa610836366004614e0d565b611d0d565b610482610849366004614af4565b6001600160a01b031660009081526010602052604090205460ff1690565b6104aa610875366004614c1d565b611dec565b6104aa610888366004614e62565b61206d565b61051661089b366004614af4565b6001600160a01b031660009081526015602052604090205490565b6104b46121a1565b6104aa6108cc366004614eaf565b6121b0565b6104aa6108df366004614eaf565b612278565b6104aa6108f2366004614b1f565b612392565b6104aa610905366004614ef6565b6123f6565b6104aa610918366004614b1f565b612419565b6104e761092b366004614a81565b6000908152601360205260409020600201546001600160a01b031690565b6104aa610957366004614af4565b61247c565b61048261096a366004614af4565b6001600160a01b03166000908152600f602052604090205460ff1690565b610482610996366004614af4565b6001600160a01b03166000908152600d602052604090205460ff1690565b6104aa6109c2366004614ef6565b61248d565b6104b46109d5366004614bcf565b612633565b6104e76109e8366004614bcf565b60009182526014602090815260408084209284529190529020600301546001600160a01b031690565b6104aa610a1f366004615016565b6126fb565b6104aa610a32366004614eaf565b61272d565b6104aa610a4536600461507d565b6127c5565b6104aa610a583660046150b8565b612854565b6104aa610a6b3660046150d4565b61291c565b610a83610a7e366004614a81565b612937565b6040805182516001600160a01b031681526020928301516001600160601b0316928101929092520161048e565b6104aa610abe36600461492f565b612a05565b610ad6610ad1366004614bcf565b612a56565b60405161048e91906150f7565b6104b4610af1366004614a81565b612bb5565b6104e7610b04366004614a81565b6000908152601360205260409020600101546001600160a01b031690565b6104aa610b303660046150b8565b612cee565b6104aa610b43366004615161565b612dde565b610482610b56366004615185565b6001600160a01b03918216600090815260056020908152604080832093909416825291909152205460ff1690565b6104b4610b92366004614a81565b612df9565b6104aa610ba53660046151af565b612e19565b6105166130db565b610bc5610bc0366004614a81565b6130ea565b60405161048e91906151ea565b6104aa610be0366004614a81565b61333e565b610516610bf3366004614af4565b600a6020526000908152604090205481565b6104aa610c133660046152bb565b613350565b6104aa610c26366004614eaf565b6133bf565b60006001600160e01b0319821663780e9d6360e01b1480610c505750610c5082613437565b92915050565b610c5e613487565b610c67836134c1565b610ca78383838080601f01602080910402602001604051908101604052809392919081815260200183838082843760009201919091525061352092505050565b505050565b606060008054610cbb9061531a565b80601f0160208091040260200160405190810160405280929190818152602001828054610ce79061531a565b8015610d345780601f10610d0957610100808354040283529160200191610d34565b820191906000526020600020905b815481529060010190602001808311610d1757829003601f168201915b5050505050905090565b60017f00000000000000000000000000000000000000000000000000000000000000006001600160a01b0316301415610d8a576040516325c7410560e21b815260040160405180910390fd5b600b548111610dac576040516302ed543d60e51b815260040160405180910390fd5b600b819055610dbd868686866135a8565b610dc760026135f9565b610dd082613677565b505050505050565b6000818152600260205260408120546001600160a01b0316610e565760405162461bcd60e51b815260206004820152602c60248201527f4552433732313a20617070726f76656420717565727920666f72206e6f6e657860448201526b34b9ba32b73a103a37b5b2b760a11b60648201526084015b60405180910390fd5b506000908152600460205260409020546001600160a01b031690565b6000610e7d8261193b565b9050806001600160a01b0316836001600160a01b03161415610eeb5760405162461bcd60e51b815260206004820152602160248201527f4552433732313a20617070726f76616c20746f2063757272656e74206f776e656044820152603960f91b6064820152608401610e4d565b336001600160a01b0382161480610f075750610f078133610b56565b610f795760405162461bcd60e51b815260206004820152603860248201527f4552433732313a20617070726f76652063616c6c6572206973206e6f74206f7760448201527f6e6572206e6f7220617070726f76656420666f7220616c6c00000000000000006064820152608401610e4d565b610ca783836136d0565b610f8b61373e565b6001600160a01b0382166000818152600d6020908152604091829020805460ff191685151590811790915591514281529192917f8f617843889b94892bd44852d36ca6a7f49ecf4350a01e7b68e22d80f4ed95bc91015b60405180910390a35050565b600080838360405161100192919061534f565b6040805191829003909120600090815260126020522054949350505050565b61102a3382613769565b6110465760405162461bcd60e51b8152600401610e4d9061535f565b610ca7838383613860565b600061105c83611a8c565b82106110be5760405162461bcd60e51b815260206004820152602b60248201527f455243373231456e756d657261626c653a206f776e657220696e646578206f7560448201526a74206f6620626f756e647360a81b6064820152608401610e4d565b506001600160a01b03919091166000908152600660209081526040808320938352929052205490565b6110ef61373e565b6001600160a01b0382166000818152600f6020908152604091829020805460ff191685151590811790915591514281529192917f6cc19a794d6a439023150cd58748eed4353190c0bb060d2e6250e2df4a68b6739101610fe2565b6000811580611166575060008381526013602052604090205482115b1561117357506003610c50565b60008381526014602090815260408083208584529091529020600401546001600160a01b03166111a557506002610c50565b60008381526014602090815260408083208584529091529020546111cb57506000610c50565b506001610c50565b6111db61373e565b601880546001600160a01b038381166001600160a01b03198316811790935560405191169190829033907f676c0801b0f400762e958ee31cfbb10870e70786f6761f57c8647e766b0db3d9906112349042815260200190565b60405180910390a45050565b60008181526013602052604090206005018054606091906112609061531a565b80601f016020809104026020016040519081016040528092919081815260200182805461128c9061531a565b80156112d95780601f106112ae576101008083540402835291602001916112d9565b820191906000526020600020905b8154815290600101906020018083116112bc57829003601f168201915b50505050509050919050565b6112ed613487565b60006112f9823561193b565b90506113ef6113d77f6f3f6455a608af1cc57ef3e5c0a49deeb88bba264ec8865b798ff07358859d4b84356113346040870160208801614af4565b61134160408801886153b0565b60405161134f92919061534f565b60408051918290039091206001600160a01b0388166000908152600a6020529182208054919261137e8361540c565b909155506040805160208101969096528501939093526001600160a01b039091166060840152608083015260a082015260c0858101359082015260e0015b60405160208183030381529060405280519060200120613a0b565b826113ea36869003860160608701615427565b613a55565b73__$1f7cbacb1f9f5d323b85b0487838426c8d$__636a7ecf13833561141b6040860160208701614af4565b61142860408701876153b0565b87356000908152601360205260409081902090516001600160e01b031960e088901b168152611461959493929190600e906004016154c4565b60006040518083038186803b15801561147957600080fd5b505af4158015610dd0573d6000803e3d6000fd5b611495613b39565b60006114a1823561193b565b90506115ee6115db7ffb8f057542e7551386ead0b891a45f102af78c47f8cc58b4a919c7cfeccd0e1e84356114d960208701876153b0565b6040516114e792919061534f565b60405180910390208660400160208101906115029190614af4565b61150f60608901896153b0565b60405161151d92919061534f565b60405190819003902061153660a08a0160808b01614af4565b61154360a08b018b6153b0565b60405161155192919061534f565b60408051918290039091206001600160a01b038b166000908152600a602052918220805491926115808361540c565b9091555060408051602081019990995288019690965260608701949094526001600160a01b03928316608087015260a08601919091521660c084015260e08301526101008201526101208581013590820152610140016113bc565b826113ea36869003860160c08701615427565b6116de823561160060208501856153b0565b8080601f016020809104026020016040519081016040528093929190818152602001838380828437600092019190915250611645925050506060860160408701614af4565b61165260608701876153b0565b8080601f0160208091040260200160405190810160405280939291908181526020018383808284376000920191909152506116979250505060a0880160808901614af4565b6116a460a08901896153b0565b8080601f016020809104026020016040519081016040528093929190818152602001838380828437600092019190915250613ba992505050565b5050565b6116ea61373e565b6001600160a01b038216600081815260106020908152604091829020805460ff191685151590811790915591514281529192917f37872a053ef20cb52defb7c9ec20e1a87cb8dd5098ac9e76a144be263dfef5729101610fe2565b610ca7838383604051806020016040528060008152506126fb565b611768613487565b61177181613c55565b61177a81613c85565b50565b6000818152600260205260408120546001600160a01b03161515610c50565b60006117a760085490565b821061180a5760405162461bcd60e51b815260206004820152602c60248201527f455243373231456e756d657261626c653a20676c6f62616c20696e646578206f60448201526b7574206f6620626f756e647360a01b6064820152608401610e4d565b6008828154811061181d5761181d615504565b90600052602060002001549050919050565b600081815260026020526040812054600160a01b90046001600160601b0316806118b65760405162461bcd60e51b815260206004820152603260248201527f4552433732313a206d696e742074696d657374616d7020717565727920666f72604482015271103737b732bc34b9ba32b73a103a37b5b2b760711b6064820152608401610e4d565b6001600160601b031692915050565b6017546001600160a01b031633148015906118eb57506018546001600160a01b03163314155b1561190957604051635010559960e11b815260040160405180910390fd5b61177a816135f9565b6000828152601460209081526040808320848452909152902080546001909101545b9250929050565b6000818152600260205260408120546001600160a01b031680610c505760405162461bcd60e51b815260206004820152602960248201527f4552433732313a206f776e657220717565727920666f72206e6f6e657869737460448201526832b73a103a37b5b2b760b91b6064820152608401610e4d565b6119ba613b39565b6119c481356134c1565b61177a8135602083013560408401356119e36080860160608701614af4565b6119f060808701876153b0565b613cc0565b6119fd613487565b611a0684613d31565b600084815260136020526040908190209051636a7ecf1360e01b815273__$1f7cbacb1f9f5d323b85b0487838426c8d$__91636a7ecf1391611a5691889188918891889190600e906004016154c4565b60006040518083038186803b158015611a6e57600080fd5b505af4158015611a82573d6000803e3d6000fd5b5050505050505050565b60006001600160a01b038216611af75760405162461bcd60e51b815260206004820152602a60248201527f4552433732313a2062616c616e636520717565727920666f7220746865207a65604482015269726f206164647265737360b01b6064820152608401610e4d565b506001600160a01b031660009081526003602052604090205490565b6001600160a01b038316611b3a576040516307eb16dd60e21b815260040160405180910390fd5b6000611b458361193b565b6001600160a01b0381166000908152600a602052604081208054929350611bf092611be0927f49ecf333e5b8c95c40fdafc95c1ad136e8914a8fb55e9dc8bb01eaa83a2df9ad9289928992909190611b9c8361540c565b9190505587606001356040516020016113bc9594939291909485526001600160a01b0393909316602085015260408401919091526060830152608082015260a00190565b826113ea36869003860186615427565b611bfa84846136d0565b50505050565b611c08613487565b60405163334ce6f160e21b815273__$1e68a60ae0444699fe08192a29ecc09930$__9063cd339bc490611a5690339088908890889088907f00000000000000000000000000000000000000000000000000000000000000009060149060139060040161551a565b60008581526014602090815260408083208784529091529020600501546001600160a01b0316338114611cb55760405163c6d1651b60e01b815260040160405180910390fd5b604080516001600160a01b03858116825284166020820152428183015290518591879189917f68edb7ec2c37d21b3b72233960b487f2966f4ac82b7430d39f24d1f8d6f99106919081900360600190a4505050505050565b6001600160a01b038316611d34576040516307eb16dd60e21b815260040160405180910390fd5b6001600160a01b0384166000908152600a602052604081208054611de192611dd1927f47ab88482c90e4bb94b82a947ae78fa91fb25de1469ab491f4c15b9a0a2677ee9289928992899291611d888361540c565b909155506040805160208101969096526001600160a01b039485169086015291909216606080850191909152911515608084015260a083015284013560c082015260e0016113bc565b856113ea36859003850185615427565b611bfa848484613d6b565b611df4613487565b6000611e036040830183615568565b90506001600160401b03811115611e1c57611e1c614f2a565b604051908082528060200260200182016040528015611e45578160200160208202803683370190505b50905060005b611e586040840184615568565b9050811015611ed357611e6e6040840184615568565b82818110611e7e57611e7e615504565b9050602002810190611e9091906153b0565b604051611e9e92919061534f565b6040518091039020828281518110611eb857611eb8615504565b6020908102919091010152611ecc8161540c565b9050611e4b565b50611fe4611fc57ffb6b7f1cd1b38daf3822aff0abbe78124db5d62a4748bcff007c15ccd6d30bc5611f086020860186615568565b604051602001611f199291906155b1565b6040516020818303038152906040528051906020012084604051602001611f4091906155dd565b60405160208183030381529060405280519060200120600a6000886000016020810190611f6d9190614af4565b6001600160a01b0316815260208101919091526040016000908120805491611f948361540c565b909155506040805160208101959095528401929092526060830152608082015260c08581013560a0830152016113bc565b611fd26020850185614af4565b6113ea36869003860160608701615427565b73__$1e68a60ae0444699fe08192a29ecc09930$__63bccbaefd61200b6020850185614af4565b6120186020860186615568565b6120256040880188615568565b7f0000000000000000000000000000000000000000000000000000000000000000601360126040518963ffffffff1660e01b8152600401611461989796959493929190615658565b612075613b39565b6000612081823561193b565b90506121756121627f64f4578fc098f96a2450fbe601cb8c5318ebeb2ff72d2031a36be1ff6932d5ee8435602086013560408701356120c66080890160608a01614af4565b6120d360808a018a6153b0565b6040516120e192919061534f565b60408051918290039091206001600160a01b038a166000908152600a602052918220805491926121108361540c565b90915550604080516020810198909852870195909552606086019390935260808501919091526001600160a01b031660a084015260c083015260e08201526101008581013590820152610120016113bc565b826113ea36869003860160a08701615427565b6116de8235602084013560408501356121946080870160608801614af4565b6119f060808801886153b0565b606060018054610cbb9061531a565b6121b8613b39565b6121c281356134c1565b61177a81356121d460208401846153b0565b8080601f016020809104026020016040519081016040528093929190818152602001838380828437600092019190915250612219925050506060850160408601614af4565b61222660608601866153b0565b8080601f01602080910402602001604051908101604052809392919081815260200183838082843760009201919091525061226b9250505060a0870160808801614af4565b6116a460a08801886153b0565b612280613487565b600061228c823561193b565b90506123466123337f5b9860bd835e648945b22d053515bc1f53b7d9fab4b23b1b49db15722e945d1484356122c460208701876153b0565b6040516122d292919061534f565b60408051918290039091206001600160a01b0387166000908152600a602052918220805491926123018361540c565b909155506040805160208101959095528401929092526060830152608082015260a0858101359082015260c0016113bc565b826113ea36869003860160408701615427565b6116de823561235860208501856153b0565b8080601f01602080910402602001604051908101604052809392919081815260200183838082843760009201919091525061352092505050565b6001600160a01b0382163314156123eb5760405162461bcd60e51b815260206004820152601960248201527f4552433732313a20617070726f766520746f2063616c6c6572000000000000006044820152606401610e4d565b6116de338383613d6b565b6123fe613b39565b61240881356134c1565b61177a6124148261572a565b613dd8565b61242161373e565b6001600160a01b0382166000818152600e6020908152604091829020805460ff191685151590811790915591514281529192917f52c5b7889df9f12f84ec3da051e854e5876678370d8357959c23ef59dd6486df9101610fe2565b61248461373e565b61177a81613677565b612495613487565b61257a61255b7f7f9b4ea1fc678b4fda1611ac5cbd28f339e235d89b1540635e9b2e0223a3c101602084013560408501356124d360608701876153b0565b6040516124e192919061534f565b604051908190039020600a60006124fb60208a018a614af4565b6001600160a01b03168152602081019190915260400160009081208054916125228361540c565b909155506040805160208101969096528501939093526060840191909152608083015260a082015260e08481013560c0830152016113bc565b6125686020840184614af4565b6113ea36859003850160808601615427565b73__$1e68a60ae0444699fe08192a29ecc09930$__63cd339bc46125a16020840184614af4565b602084013560408501356125b860608701876153b0565b7f0000000000000000000000000000000000000000000000000000000000000000601460136040518963ffffffff1660e01b815260040161260098979695949392919061551a565b60006040518083038186803b15801561261857600080fd5b505af415801561262c573d6000803e3d6000fd5b5050505050565b606060008061264485856014613e90565b50600082815260146020908152604080832084845290915290206002018054929450909250906126739061531a565b80601f016020809104026020016040519081016040528092919081815260200182805461269f9061531a565b80156126ec5780601f106126c1576101008083540402835291602001916126ec565b820191906000526020600020905b8154815290600101906020018083116126cf57829003601f168201915b50505050509250505092915050565b6127053383613769565b6127215760405162461bcd60e51b8152600401610e4d9061535f565b611bfa84848484613f52565b612735613487565b6000612741823561193b565b90506127796123337fd8d76e8b2b26e1ebe72def13fb559a68561ef064055b0de01f955bc26e25d42f84356122c460208701876153b0565b6116de823561278b60208501856153b0565b8080601f016020809104026020016040519081016040528093929190818152602001838380828437600092019190915250613f8592505050565b6000848152601360205260409020600201546001600160a01b03163381146128005760405163646785d560e11b815260040160405180910390fd5b604080516001600160a01b0385811682528416602082015242818301529051859187917f4996ad2257e7db44908136c43128cc10ca988096f67dc6bb0bcee11d151368fb9181900360600190a35050505050565b61285c613487565b6000612868823561193b565b90506129026123337f77ba3e9f5fa75343bbad1241fb539a0064de97694b47d463d1eb5c54aba11f0f84356128a36040870160208801614af4565b6001600160a01b0386166000908152600a602052604081208054916128c78361540c565b909155506040805160208101959095528401929092526001600160a01b03166060830152608082015260a0858101359082015260c0016113bc565b6116de82356129176040850160208601614af4565b613fdd565b612924613487565b61292d82613d31565b6116de8282613fdd565b60408051808201909152600080825260208201526000828152600260205260409020546001600160a01b03166129c65760405162461bcd60e51b815260206004820152602e60248201527f4552433732313a20746f6b656e206461746120717565727920666f72206e6f6e60448201526d32bc34b9ba32b73a103a37b5b2b760911b6064820152608401610e4d565b506000908152600260209081526040918290208251808401909352546001600160a01b0381168352600160a01b90046001600160601b03169082015290565b612a0d613487565b612a16836134c1565b610ca78383838080601f016020809104026020016040519081016040528093929190818152602001838380828437600092019190915250613f8592505050565b612aaa6040518060c0016040528060008152602001600081526020016060815260200160006001600160a01b0316815260200160006001600160a01b0316815260200160006001600160a01b031681525090565b6014600084815260200190815260200160002060008381526020019081526020016000206040518060c00160405290816000820154815260200160018201548152602001600282018054612afd9061531a565b80601f0160208091040260200160405190810160405280929190818152602001828054612b299061531a565b8015612b765780601f10612b4b57610100808354040283529160200191612b76565b820191906000526020600020905b815481529060010190602001808311612b5957829003601f168201915b505050918352505060038201546001600160a01b0390811660208301526004830154811660408301526005909201549091166060909101529392505050565b6000818152601360205260409020600201546060906001600160a01b031673__$f906f20d797116ee89ed79945048c6ad36$__633edea73c848315612c5b57836001600160a01b03166318160ddd6040518163ffffffff1660e01b8152600401602060405180830381865afa158015612c32573d6000803e3d6000fd5b505050506040513d601f19601f82011682018060405250810190612c5691906157fc565b612c5e565b60005b612c678761193b565b6000888152601360205260409081902090516001600160e01b031960e087901b168152612ca29493929160038101916004918201910161588c565b600060405180830381865af4158015612cbf573d6000803e3d6000fd5b505050506040513d6000823e601f3d908101601f19168201604052612ce791908101906158d7565b9392505050565b612cf6613487565b612dc4612da57e198a25e19615d82f53977db0fc1ee7f3701b0fdf1299a971cf997545879c04612d296020850185614af4565b60208501803590600a90600090612d409089614af4565b6001600160a01b0316815260208101919091526040016000908120805491612d678361540c565b909155506040805160208101959095526001600160a01b03909316928401929092526060830152608082015260a0848101359082015260c0016113bc565b612db26020840184614af4565b6113ea36859003850160408601615427565b61177a612dd46020830183614af4565b826020013561403a565b612de6613487565b612df082826140ca565b6116de82613c85565b60008181526013602052604090206003018054606091906112609061531a565b612e21613b39565b6000612e2d823561193b565b9050612f97612f837fb30910150df56294e05b2d03e181803697a2b935abb1b9bdddde9310f618fe9b8435612e6560208701876153b0565b604051612e7392919061534f565b604051809103902086604001358760600135886080016020810190612e989190614af4565b612ea560a08b018b6153b0565b604051612eb392919061534f565b604051908190039020612ecc60e08c0160c08d01614af4565b612ed960e08d018d6153b0565b604051612ee792919061534f565b60408051918290039091206001600160a01b038d166000908152600a60205291822080549192612f168361540c565b9091555060408051602081019b909b528a01989098526060890196909652608088019490945260a08701929092526001600160a01b0390811660c087015260e0860191909152166101008401526101208301526101408201526101608086013590820152610180016113bc565b826113ea3686900386016101008701615427565b6116de60405180610100016040528084600001358152602001848060200190612fc091906153b0565b8080601f0160208091040260200160405190810160405280939291908181526020018383808284376000920191909152505050908252506040808601356020830152606080870135918301919091520161302060a0860160808701614af4565b6001600160a01b0316815260200161303b60a08601866153b0565b8080601f01602080910402602001604051908101604052809392919081815260200183838082843760009201919091525050509082525060200161308560e0860160c08701614af4565b6001600160a01b031681526020016130a060e08601866153b0565b8080601f0160208091040260200160405190810160405280939291908181526020018383808284376000920191909152505050915250613dd8565b60006130e5614160565b905090565b6131356040518060c001604052806000815260200160006001600160a01b0316815260200160006001600160a01b031681526020016060815260200160608152602001606081525090565b600082815260136020908152604091829020825160c0810184528154815260018201546001600160a01b03908116938201939093526002820154909216928201929092526003820180549192916060840191906131919061531a565b80601f01602080910402602001604051908101604052809291908181526020018280546131bd9061531a565b801561320a5780601f106131df5761010080835404028352916020019161320a565b820191906000526020600020905b8154815290600101906020018083116131ed57829003601f168201915b505050505081526020016004820180546132239061531a565b80601f016020809104026020016040519081016040528092919081815260200182805461324f9061531a565b801561329c5780601f106132715761010080835404028352916020019161329c565b820191906000526020600020905b81548152906001019060200180831161327f57829003601f168201915b505050505081526020016005820180546132b59061531a565b80601f01602080910402602001604051908101604052809291908181526020018280546132e19061531a565b801561332e5780601f106133035761010080835404028352916020019161332e565b820191906000526020600020905b81548152906001019060200180831161331157829003601f168201915b5050505050815250509050919050565b613346613487565b61177a338261403a565b613358613487565b60405163bccbaefd60e01b815273__$1e68a60ae0444699fe08192a29ecc09930$__9063bccbaefd90611a5690339088908890889088907f000000000000000000000000000000000000000000000000000000000000000090601390601290600401615658565b6133c7613487565b60006016600081546133d89061540c565b918290555090506133f56133ef6020840184614af4565b826141f5565b604051633f67a66f60e11b815273__$1f7cbacb1f9f5d323b85b0487838426c8d$__90637ecf4cde906114619085908590601290601390600e90600401615944565b60006001600160e01b031982166380ac58cd60e01b148061346857506001600160e01b03198216635b5e139f60e01b145b80610c5057506301ffc9a760e01b6001600160e01b0319831614610c50565b6002600c5460ff1660028111156134a0576134a0614ac4565b14156134bf576040516313d0ff5960e31b815260040160405180910390fd5b565b6134ca8161193b565b6001600160a01b0316336001600160a01b03161415801561350257506000818152601160205260409020546001600160a01b03163314155b1561177a5760405163f33ac98f60e01b815260040160405180910390fd5b805161177010156135445760405163781548c760e01b815260040160405180910390fd5b60008281526013602090815260409091208251613569926004909201918401906147ae565b50817fd5a5879cad33c830cc1432c1850107029a09c80c60e9bce1ecd08d24880bd46c824260405161359c929190615a3b565b60405180910390a25050565b6135b484848484614346565b7f414cd0b34676984f09a5f76ce9718d4062e50283abe0e7e274a9a5b4e0c99c3084848484426040516135eb959493929190615a5d565b60405180910390a150505050565b600c805460ff811691839160ff1916600183600281111561361c5761361c614ac4565b021790555081600281111561363357613633614ac4565b81600281111561364557613645614ac4565b60405142815233907fa2f9a1499fc1f9b7796d21fe5761290ccb7e0ef6ccf35fa58b668f304a62a1ca90602001611234565b601780546001600160a01b038381166001600160a01b03198316811790935560405191169190829033907fe552a55455b740845a5c07ed445d1724142fc997b389835495a29b30cddc1ccd906112349042815260200190565b600081815260046020526040902080546001600160a01b0319166001600160a01b03841690811790915581906137058261193b565b6001600160a01b03167f8c5be1e5ebec7d5bd14f71427d1e84f3dd0314c0f7b2291e5b200ac8c7c3b92560405160405180910390a45050565b6017546001600160a01b031633146134bf57604051632d5be4cb60e21b815260040160405180910390fd5b6000818152600260205260408120546001600160a01b03166137e25760405162461bcd60e51b815260206004820152602c60248201527f4552433732313a206f70657261746f7220717565727920666f72206e6f6e657860448201526b34b9ba32b73a103a37b5b2b760a11b6064820152608401610e4d565b60006137ed8361193b565b9050806001600160a01b0316846001600160a01b031614806138285750836001600160a01b031661381d84610dd8565b6001600160a01b0316145b8061385857506001600160a01b0380821660009081526005602090815260408083209388168352929052205460ff165b949350505050565b826001600160a01b03166138738261193b565b6001600160a01b0316146138db5760405162461bcd60e51b815260206004820152602960248201527f4552433732313a207472616e73666572206f6620746f6b656e2074686174206960448201526839903737ba1037bbb760b91b6064820152608401610e4d565b6001600160a01b03821661393d5760405162461bcd60e51b8152602060048201526024808201527f4552433732313a207472616e7366657220746f20746865207a65726f206164646044820152637265737360e01b6064820152608401610e4d565b61394883838361435f565b6139536000826136d0565b6001600160a01b038316600090815260036020526040812080546001929061397c908490615a97565b90915550506001600160a01b03821660009081526003602052604081208054600192906139aa908490615aae565b909155505060008181526002602052604080822080546001600160a01b0319166001600160a01b0386811691821790925591518493918716917fddf252ad1be2c89b69c2b068fc378daa952ba7f163c4a11628f55a4df523b3ef91a4505050565b600080613a16614160565b60405161190160f01b602082015260228101919091526042810184905260620160408051601f1981840301815291905280516020909101209392505050565b4281606001511015613a7a57604051630819bdcd60e01b815260040160405180910390fd5b600060018483600001518460200151856040015160405160008152602001604052604051613ac4949392919093845260ff9290921660208401526040830152606082015260800190565b6020604051602081039080840390855afa158015613ae6573d6000803e3d6000fd5b5050604051601f1901519150506001600160a01b0381161580613b1b5750826001600160a01b0316816001600160a01b031614155b15611bfa576040516337e8456b60e01b815260040160405180910390fd5b6002600c5460ff166002811115613b5257613b52614ac4565b1415613b71576040516313d0ff5960e31b815260040160405180910390fd5b6001600c5460ff166002811115613b8a57613b8a614ac4565b14156134bf57604051630f392a3b60e31b815260040160405180910390fd5b73__$1f7cbacb1f9f5d323b85b0487838426c8d$__639dbf0510878787878787601360008f815260200190815260200160002060000160008154613bec9061540c565b9190508190556014600f60106040518b63ffffffff1660e01b8152600401613c1d9a99989796959493929190615ac6565b60006040518083038186803b158015613c3557600080fd5b505af4158015613c49573d6000803e3d6000fd5b50505050505050505050565b613c5f3382613769565b613c7c57604051636d8a29e760e11b815260040160405180910390fd5b61177a816143cc565b6000818152601360205260408082209051613ca39160030190615b4d565b604080519182900390912060009081526012602052908120555050565b73__$1f7cbacb1f9f5d323b85b0487838426c8d$__638588c2ff878787878787601360008f815260200190815260200160002060000160008154613d039061540c565b919050819055601460106040518a63ffffffff1660e01b8152600401613c1d99989796959493929190615bbb565b613d3a8161193b565b6001600160a01b0316336001600160a01b03161461177a5760405163f194fae560e01b815260040160405180910390fd5b6001600160a01b03838116600081815260056020908152604080832094871680845294825291829020805460ff191686151590811790915591519182527f17307eab39ab6107e8899845ad3d59bd9653f200f220920489ca2b5937696c31910160405180910390a3505050565b805160009081526013602052604090205473__$1f7cbacb1f9f5d323b85b0487838426c8d$__9063e63aa93e908390613e12906001615aae565b60136014600f60106040518763ffffffff1660e01b8152600401613e3b96959493929190615c12565b60006040518083038186803b158015613e5357600080fd5b505af4158015613e67573d6000803e3d6000fd5b505082516000908152601360205260408120805493509150613e888361540c565b919050555050565b600083815260208281526040808320858452909152812060040154819081906001600160a01b03168015613ecb578693508592509050613f49565b60008781526020868152604080832089845290915290205480613f015760405163a43d2a7160e01b815260040160405180910390fd5b6000888152602087815260408083208a84528252808320600101548484528983528184208185529092529091206004015491955093506001600160a01b03169150613f499050565b93509350939050565b613f5d848484613860565b613f6984848484614468565b611bfa5760405162461bcd60e51b8152600401610e4d90615cf2565b60008281526013602090815260409091208251613faa926005909201918401906147ae565b50817fe82886e1af6fcab5caef13815b22f51384e970c367a785f265d13860a7d6966d824260405161359c929190615a3b565b60008281526011602090815260409182902080546001600160a01b0319166001600160a01b038516908117909155915142815284917f22baaec4952f35f59e45bd2ddb287e1ccc6d319375770c09428eb8f8d604e0659101610fe2565b801561407a576140498161193b565b6001600160a01b0316826001600160a01b03161461407a5760405163f194fae560e01b815260040160405180910390fd5b6001600160a01b03821660008181526015602052604090819020839055518291907f0afd7c479e8bc7dcdb856b3cc27d2332dfe1f018fde574ea124919ddcae8a93390610fe29042815260200190565b60006140d58361193b565b6001600160a01b0381166000908152600a60205260408120805492935061415792611be0927f108ccda6d7331b00561a3eea66a2ae331622356585681c62731e4a01aae2261a928892916141288361540c565b90915550604080516020810194909452830191909152606082810191909152850135608082015260a0016113bc565b610ca7836143cc565b60007f8b73c3c69bb8fe3d512ecc4cf759cc79239f7b179b0ffacaa9a75d522b39400f61418b610cac565b80516020918201206040805192830193909352918101919091527fc89efdaa54c0f20c7adf612882df0950f5a951637e0307cdcb4c672f298b8bc660608201524660808201523060a082015260c00160405160208183030381529060405280519060200120905090565b6001600160a01b03821661424b5760405162461bcd60e51b815260206004820181905260248201527f4552433732313a206d696e7420746f20746865207a65726f20616464726573736044820152606401610e4d565b6000818152600260205260409020546001600160a01b0316156142b05760405162461bcd60e51b815260206004820152601c60248201527f4552433732313a20746f6b656e20616c7265616479206d696e746564000000006044820152606401610e4d565b6142bc6000838361435f565b6001600160a01b03821660009081526003602052604081208054600192906142e5908490615aae565b90915550506000818152600260205260408082206001600160a01b038516600160a01b426001600160601b031602811790915590518392907fddf252ad1be2c89b69c2b068fc378daa952ba7f163c4a11628f55a4df523b3ef908290a45050565b61435260008585614832565b5061262c60018383614832565b6000818152601160205260409020546001600160a01b03161561438757614387816000613fdd565b6001600160a01b0383166000908152601560205260409020548114156143c1576001600160a01b0383166000908152601560205260408120555b610ca7838383614566565b60006143d78261193b565b90506143e58160008461435f565b6143f06000836136d0565b6001600160a01b0381166000908152600360205260408120805460019290614419908490615a97565b9091555050600082815260026020526040808220829055518391906001600160a01b038416907fddf252ad1be2c89b69c2b068fc378daa952ba7f163c4a11628f55a4df523b3ef908390a45050565b60006001600160a01b0384163b1561455b57604051630a85bd0160e11b81526001600160a01b0385169063150b7a02906144ac903390899088908890600401615d44565b6020604051808303816000875af19250505080156144e7575060408051601f3d908101601f191682019092526144e491810190615d81565b60015b614541573d808015614515576040519150601f19603f3d011682016040523d82523d6000602084013e61451a565b606091505b5080516145395760405162461bcd60e51b8152600401610e4d90615cf2565b805181602001fd5b6001600160e01b031916630a85bd0160e11b149050613858565b506001949350505050565b6001600160a01b0383166145c1576145bc81600880546000838152600960205260408120829055600182018355919091527ff3f7a9fe364faab93b216da50a3214154f22a0a2b415b23a84c8169e8b636ee30155565b6145e4565b816001600160a01b0316836001600160a01b0316146145e4576145e4838261461e565b6001600160a01b0382166145fb57610ca7816146bb565b826001600160a01b0316826001600160a01b031614610ca757610ca7828261476a565b6000600161462b84611a8c565b6146359190615a97565b600083815260076020526040902054909150808214614688576001600160a01b03841660009081526006602090815260408083208584528252808320548484528184208190558352600790915290208190555b5060009182526007602090815260408084208490556001600160a01b039094168352600681528383209183525290812055565b6008546000906146cd90600190615a97565b600083815260096020526040812054600880549394509092849081106146f5576146f5615504565b90600052602060002001549050806008838154811061471657614716615504565b600091825260208083209091019290925582815260099091526040808220849055858252812055600880548061474e5761474e615d9e565b6001900381819060005260206000200160009055905550505050565b600061477583611a8c565b6001600160a01b039093166000908152600660209081526040808320868452825280832085905593825260079052919091209190915550565b8280546147ba9061531a565b90600052602060002090601f0160209004810192826147dc5760008555614822565b82601f106147f557805160ff1916838001178555614822565b82800160010185558215614822579182015b82811115614822578251825591602001919060010190614807565b5061482e9291506148a6565b5090565b82805461483e9061531a565b90600052602060002090601f0160209004810192826148605760008555614822565b82601f106148795782800160ff19823516178555614822565b82800160010185558215614822579182015b8281111561482257823582559160200191906001019061488b565b5b8082111561482e57600081556001016148a7565b6001600160e01b03198116811461177a57600080fd5b6000602082840312156148e357600080fd5b8135612ce7816148bb565b60008083601f84011261490057600080fd5b5081356001600160401b0381111561491757600080fd5b60208301915083602082850101111561193457600080fd5b60008060006040848603121561494457600080fd5b8335925060208401356001600160401b0381111561496157600080fd5b61496d868287016148ee565b9497909650939450505050565b60005b8381101561499557818101518382015260200161497d565b83811115611bfa5750506000910152565b600081518084526149be81602086016020860161497a565b601f01601f19169290920160200192915050565b602081526000612ce760208301846149a6565b80356001600160a01b03811681146149fc57600080fd5b919050565b600080600080600060608688031215614a1957600080fd5b85356001600160401b0380821115614a3057600080fd5b614a3c89838a016148ee565b90975095506020880135915080821115614a5557600080fd5b50614a62888289016148ee565b9094509250614a759050604087016149e5565b90509295509295909350565b600060208284031215614a9357600080fd5b5035919050565b60008060408385031215614aad57600080fd5b614ab6836149e5565b946020939093013593505050565b634e487b7160e01b600052602160045260246000fd5b6020810160038310614aee57614aee614ac4565b91905290565b600060208284031215614b0657600080fd5b612ce7826149e5565b803580151581146149fc57600080fd5b60008060408385031215614b3257600080fd5b614b3b836149e5565b9150614b4960208401614b0f565b90509250929050565b60008060208385031215614b6557600080fd5b82356001600160401b03811115614b7b57600080fd5b614b87858286016148ee565b90969095509350505050565b600080600060608486031215614ba857600080fd5b614bb1846149e5565b9250614bbf602085016149e5565b9150604084013590509250925092565b60008060408385031215614be257600080fd5b50508035926020909101359150565b6020810160048310614aee57614aee614ac4565b600060e08284031215614c1757600080fd5b50919050565b600060208284031215614c2f57600080fd5b81356001600160401b03811115614c4557600080fd5b61385884828501614c05565b600060208284031215614c6357600080fd5b81356001600160401b03811115614c7957600080fd5b82016101408185031215612ce757600080fd5b600060208284031215614c9e57600080fd5b813560038110612ce757600080fd5b600060208284031215614cbf57600080fd5b81356001600160401b03811115614cd557600080fd5b820160a08185031215612ce757600080fd5b60008060008060608587031215614cfd57600080fd5b84359350614d0d602086016149e5565b925060408501356001600160401b03811115614d2857600080fd5b614d34878288016148ee565b95989497509550505050565b600060808284031215614c1757600080fd5b600080600060c08486031215614d6757600080fd5b614d70846149e5565b925060208401359150614d868560408601614d40565b90509250925092565b60008060008060608587031215614da557600080fd5b843593506020850135925060408501356001600160401b03811115614d2857600080fd5b600080600080600060a08688031215614de157600080fd5b853594506020860135935060408601359250614dff606087016149e5565b9150614a75608087016149e5565b60008060008060e08587031215614e2357600080fd5b614e2c856149e5565b9350614e3a602086016149e5565b9250614e4860408601614b0f565b9150614e578660608701614d40565b905092959194509250565b600060208284031215614e7457600080fd5b81356001600160401b03811115614e8a57600080fd5b82016101208185031215612ce757600080fd5b600060c08284031215614c1757600080fd5b600060208284031215614ec157600080fd5b81356001600160401b03811115614ed757600080fd5b61385884828501614e9d565b60006101008284031215614c1757600080fd5b600060208284031215614f0857600080fd5b81356001600160401b03811115614f1e57600080fd5b61385884828501614ee3565b634e487b7160e01b600052604160045260246000fd5b60405161010081016001600160401b0381118282101715614f6357614f63614f2a565b60405290565b604051601f8201601f191681016001600160401b0381118282101715614f9157614f91614f2a565b604052919050565b60006001600160401b03821115614fb257614fb2614f2a565b50601f01601f191660200190565b600082601f830112614fd157600080fd5b8135614fe4614fdf82614f99565b614f69565b818152846020838601011115614ff957600080fd5b816020850160208301376000918101602001919091529392505050565b6000806000806080858703121561502c57600080fd5b615035856149e5565b9350615043602086016149e5565b92506040850135915060608501356001600160401b0381111561506557600080fd5b61507187828801614fc0565b91505092959194509250565b6000806000806080858703121561509357600080fd5b84359350602085013592506150aa604086016149e5565b9150614e57606086016149e5565b600060c082840312156150ca57600080fd5b612ce78383614e9d565b600080604083850312156150e757600080fd5b82359150614b49602084016149e5565b6020815281516020820152602082015160408201526000604083015160c0606084015261512760e08401826149a6565b9050606084015160018060a01b0380821660808601528060808701511660a08601528060a08701511660c086015250508091505092915050565b60008060a0838503121561517457600080fd5b82359150614b498460208501614d40565b6000806040838503121561519857600080fd5b6151a1836149e5565b9150614b49602084016149e5565b6000602082840312156151c157600080fd5b81356001600160401b038111156151d757600080fd5b82016101808185031215612ce757600080fd5b60208152815160208201526000602083015160018060a01b0380821660408501528060408601511660608501525050606083015160c0608084015261523260e08401826149a6565b90506080840151601f19808584030160a086015261525083836149a6565b925060a08601519150808584030160c08601525061526e82826149a6565b95945050505050565b60008083601f84011261528957600080fd5b5081356001600160401b038111156152a057600080fd5b6020830191508360208260051b850101111561193457600080fd5b600080600080604085870312156152d157600080fd5b84356001600160401b03808211156152e857600080fd5b6152f488838901615277565b9096509450602087013591508082111561530d57600080fd5b50614d3487828801615277565b600181811c9082168061532e57607f821691505b60208210811415614c1757634e487b7160e01b600052602260045260246000fd5b8183823760009101908152919050565b60208082526031908201527f4552433732313a207472616e736665722063616c6c6572206973206e6f74206f6040820152701ddb995c881b9bdc88185c1c1c9bdd9959607a1b606082015260800190565b6000808335601e198436030181126153c757600080fd5b8301803591506001600160401b038211156153e157600080fd5b60200191503681900382131561193457600080fd5b634e487b7160e01b600052601160045260246000fd5b6000600019821415615420576154206153f6565b5060010190565b60006080828403121561543957600080fd5b604051608081018181106001600160401b038211171561545b5761545b614f2a565b604052823560ff8116811461546f57600080fd5b808252506020830135602082015260408301356040820152606083013560608201528091505092915050565b81835281816020850137506000828201602090810191909152601f909101601f19169091010190565b8681526001600160a01b038616602082015260a0604082018190526000906154ef908301868861549b565b60608301949094525060800152949350505050565b634e487b7160e01b600052603260045260246000fd5b600060018060a01b03808b16835289602084015288604084015260e0606084015261554960e08401888a61549b565b951660808301525060a081019290925260c09091015295945050505050565b6000808335601e1984360301811261557f57600080fd5b8301803591506001600160401b0382111561559957600080fd5b6020019150600581901b360382131561193457600080fd5b60006001600160fb1b038311156155c757600080fd5b8260051b80858437600092019182525092915050565b815160009082906020808601845b83811015615607578151855293820193908201906001016155eb565b50929695505050505050565b6000808335601e1984360301811261562a57600080fd5b83016020810192503590506001600160401b0381111561564957600080fd5b80360383131561193457600080fd5b6001600160a01b038916815260c060208083018290529082018890526000906001600160fb1b0389111561568b57600080fd5b8860051b808b60e0860137830183810360e090810160408601528101889052600588901b81016101009081019082018a60005b8b8110156156f85784840360ff190183526156d9828e615613565b6156e486828461549b565b9550505091850191908501906001016156be565b5050506001600160a01b03881660608601529250615714915050565b608082019390935260a001529695505050505050565b6000610100823603121561573d57600080fd5b615745614f40565b8235815260208301356001600160401b038082111561576357600080fd5b61576f36838701614fc0565b60208401526040850135604084015260608501356060840152615794608086016149e5565b608084015260a08501359150808211156157ad57600080fd5b6157b936838701614fc0565b60a08401526157ca60c086016149e5565b60c084015260e08501359150808211156157e357600080fd5b506157f036828601614fc0565b60e08301525092915050565b60006020828403121561580e57600080fd5b5051919050565b600081546158228161531a565b80855260206001838116801561583f576001811461585357615881565b60ff19851688840152604088019550615881565b866000528260002060005b858110156158795781548a820186015290830190840161585e565b890184019650505b505050505092915050565b85815284602082015260018060a01b038416604082015260a0606082015260006158b960a0830185615815565b82810360808401526158cb8185615815565b98975050505050505050565b6000602082840312156158e957600080fd5b81516001600160401b038111156158ff57600080fd5b8201601f8101841361591057600080fd5b805161591e614fdf82614f99565b81815285602083850101111561593357600080fd5b61526e82602083016020860161497a565b60a0815260006001600160a01b038061595c896149e5565b1660a084015261596f6020890189615613565b60c0808601526159846101608601828461549b565b91505061599460408a018a615613565b609f19808785030160e08801526159ac84838561549b565b9350846159bb60608e016149e5565b166101008801526159cf60808d018d615613565b9550925080878503016101208801526159e984868561549b565b94506159f860a08d018d615613565b9450925080878603016101408801525050615a1483838361549b565b93505050508560208301528460408301528360608301528260808301529695505050505050565b604081526000615a4e60408301856149a6565b90508260208301529392505050565b606081526000615a7160608301878961549b565b8281036020840152615a8481868861549b565b9150508260408301529695505050505050565b600082821015615aa957615aa96153f6565b500390565b60008219821115615ac157615ac16153f6565b500190565b60006101408c8352806020840152615ae08184018d6149a6565b6001600160a01b038c811660408601528482036060860152909150615b05828c6149a6565b908a16608085015283810360a08501529050615b2181896149a6565b9150508560c08301528460e083015283610100830152826101208301529b9a5050505050505050505050565b6000808354615b5b8161531a565b60018281168015615b735760018114615b8457615607565b60ff19841687528287019450615607565b8760005260208060002060005b85811015615baa5781548a820152908401908201615b91565b505050959091019695505050505050565b60006101008b83528a602084015289604084015260018060a01b0389166060840152806080840152615bf0818401888a61549b565b60a0840196909652505060c081019290925260e0909101529695505050505050565b60c08152865160c0820152600060208801516101008060e0850152615c3b6101c08501836149a6565b915060408a0151818501525060608901516101208401526080890151615c6d6101408501826001600160a01b03169052565b5060a089015160bf198085840301610160860152615c8b83836149a6565b925060c08b01519150615caa6101808601836001600160a01b03169052565b60e08b0151915080858403016101a086015250615cc782826149a6565b602085019990995250505060408101949094526060840192909252608083015260a090910152919050565b60208082526032908201527f4552433732313a207472616e7366657220746f206e6f6e20455243373231526560408201527131b2b4bb32b91034b6b83632b6b2b73a32b960711b606082015260800190565b6001600160a01b0385811682528416602082015260408101839052608060608201819052600090615d77908301846149a6565b9695505050505050565b600060208284031215615d9357600080fd5b8151612ce7816148bb565b634e487b7160e01b600052603160045260246000fdfea2646970667358221220751cd67a63284462b9531b9fd2431f8104e02254959b73cb4e12fd9802b83b3664736f6c634300080a0033",
  "linkReferences": {
    "contracts/libraries/InteractionLogic.sol": {
      "InteractionLogic": [
        {
          "length": 20,
          "start": 7423
        },
        {
          "length": 20,
          "start": 8398
        },
        {
          "length": 20,
          "start": 9828
        },
        {
          "length": 20,
          "start": 13391
        }
      ]
    },
    "contracts/libraries/ProfileTokenURILogic.sol": {
      "ProfileTokenURILogic": [
        {
          "length": 20,
          "start": 11453
        }
      ]
    },
    "contracts/libraries/PublishingLogic.sol": {
      "PublishingLogic": [
        {
          "length": 20,
          "start": 5337
        },
        {
          "length": 20,
          "start": 6924
        },
        {
          "length": 20,
          "start": 13548
        },
        {
          "length": 20,
          "start": 15507
        },
        {
          "length": 20,
          "start": 15786
        },
        {
          "length": 20,
          "start": 16083
        }
      ]
    }
  },
  "deployedLinkReferences": {
    "contracts/libraries/InteractionLogic.sol": {
      "InteractionLogic": [
        {
          "length": 20,
          "start": 7191
        },
        {
          "length": 20,
          "start": 8166
        },
        {
          "length": 20,
          "start": 9596
        },
        {
          "length": 20,
          "start": 13159
        }
      ]
    },
    "contracts/libraries/ProfileTokenURILogic.sol": {
      "ProfileTokenURILogic": [
        {
          "length": 20,
          "start": 11221
        }
      ]
    },
    "contracts/libraries/PublishingLogic.sol": {
      "PublishingLogic": [
        {
          "length": 20,
          "start": 5105
        },
        {
          "length": 20,
          "start": 6692
        },
        {
          "length": 20,
          "start": 13316
        },
        {
          "length": 20,
          "start": 15275
        },
        {
          "length": 20,
          "start": 15554
        },
        {
          "length": 20,
          "start": 15851
        }
      ]
    }
  }
}