{
  "_format": "hh-sol-artifact-1",
  "contractName": "FeeFollowModule",
  "sourceName": "contracts/core/modules/follow/FeeFollowModule.sol",
  "abi": [
    {
      "inputs": [
        {
          "internalType": "address",
          "name": "hub",
          "type": "address"
        },
        {
          "internalType": "address",
          "name": "moduleGlobals",
          "type": "address"
        }
      ],
      "stateMutability": "nonpayable",
      "type": "constructor"
    },
    {
      "inputs": [],
      "name": "FollowInvalid",
      "type": "error"
    },
    {
      "inputs": [],
      "name": "InitParamsInvalid",
      "type": "error"
    },
    {
      "inputs": [],
      "name": "ModuleDataMismatch",
      "type": "error"
    },
    {
      "inputs": [],
      "name": "NotHub",
      "type": "error"
    },
    {
      "inputs": [],
      "name": "HUB",
      "outputs": [
        {
          "internalType": "address",
          "name": "",
          "type": "address"
        }
      ],
      "stateMutability": "view",
      "type": "function"
    },
    {
      "inputs": [],
      "name": "MODULE_GLOBALS",
      "outputs": [
        {
          "internalType": "address",
          "name": "",
          "type": "address"
        }
      ],
      "stateMutability": "view",
      "type": "function"
    },
    {
      "inputs": [
        {
          "internalType": "uint256",
          "name": "profileId",
          "type": "uint256"
        },
        {
          "internalType": "address",
          "name": "from",
          "type": "address"
        },
        {
          "internalType": "address",
          "name": "to",
          "type": "address"
        },
        {
          "internalType": "uint256",
          "name": "followNFTTokenId",
          "type": "uint256"
        }
      ],
      "name": "followModuleTransferHook",
      "outputs": [],
      "stateMutability": "nonpayable",
      "type": "function"
    },
    {
      "inputs": [
        {
          "internalType": "uint256",
          "name": "profileId",
          "type": "uint256"
        }
      ],
      "name": "getProfileData",
      "outputs": [
        {
          "components": [
            {
              "internalType": "address",
              "name": "currency",
              "type": "address"
            },
            {
              "internalType": "uint256",
              "name": "amount",
              "type": "uint256"
            },
            {
              "internalType": "address",
              "name": "recipient",
              "type": "address"
            }
          ],
          "internalType": "struct ProfileData",
          "name": "",
          "type": "tuple"
        }
      ],
      "stateMutability": "view",
      "type": "function"
    },
    {
      "inputs": [
        {
          "internalType": "uint256",
          "name": "profileId",
          "type": "uint256"
        },
        {
          "internalType": "bytes",
          "name": "data",
          "type": "bytes"
        }
      ],
      "name": "initializeFollowModule",
      "outputs": [
        {
          "internalType": "bytes",
          "name": "",
          "type": "bytes"
        }
      ],
      "stateMutability": "nonpayable",
      "type": "function"
    },
    {
      "inputs": [
        {
          "internalType": "address",
          "name": "follower",
          "type": "address"
        },
        {
          "internalType": "uint256",
          "name": "profileId",
          "type": "uint256"
        },
        {
          "internalType": "bytes",
          "name": "data",
          "type": "bytes"
        }
      ],
      "name": "processFollow",
      "outputs": [],
      "stateMutability": "nonpayable",
      "type": "function"
    },
    {
      "inputs": [
        {
          "internalType": "uint256",
          "name": "profileId",
          "type": "uint256"
        },
        {
          "internalType": "address",
          "name": "follower",
          "type": "address"
        },
        {
          "internalType": "uint256",
          "name": "followNFTTokenId",
          "type": "uint256"
        }
      ],
      "name": "validateFollow",
      "outputs": [],
      "stateMutability": "view",
      "type": "function"
    }
  ],
  "bytecode": "0x60c060405234801561001057600080fd5b5060405161115938038061115983398101604081905261002f91610128565b81816001600160a01b038116610058576040516348be0eb360e01b815260040160405180910390fd5b6001600160a01b03811660808190526040514281527f4e84a529f4c627b5e787037d117873af1018768804cca3c7f0d47041fe2c89ed9060200160405180910390a2506001600160a01b0381166100c2576040516348be0eb360e01b815260040160405180910390fd5b6001600160a01b03811660a08190526040514281527ff1a1fa6b64aa95186f5a1285e76198d0da80d9c5a88062641d447f1d7c54e56c9060200160405180910390a250505061015b565b80516001600160a01b038116811461012357600080fd5b919050565b6000806040838503121561013b57600080fd5b6101448361010c565b91506101526020840161010c565b90509250929050565b60805160a051610fb66101a3600039600081816101a8015281816101e8015281816103ff01526105360152600081816101490152818161075201526108f90152610fb66000f3fe608060405234801561001057600080fd5b506004361061007d5760003560e01c806388ffe8511161005b57806388ffe851146101445780639713958a14610183578063a4c52b86146101a3578063b4616a2a146101ca57600080fd5b80630e096ae1146100825780633cb22cc41461009757806345b7f60a146100ab575b600080fd5b610095610090366004610c43565b6101dd565b005b6100956100a5366004610c9f565b50505050565b61010f6100b9366004610ce7565b604080516060808201835260008083526020808401829052928401819052938452838252928290208251938401835280546001600160a01b03908116855260018201549285019290925260020154169082015290565b6040805182516001600160a01b0390811682526020808501519083015292820151909216908201526060015b60405180910390f35b61016b7f000000000000000000000000000000000000000000000000000000000000000081565b6040516001600160a01b03909116815260200161013b565b610196610191366004610d00565b6103f2565b60405161013b9190610da4565b61016b7f000000000000000000000000000000000000000000000000000000000000000081565b6100956101d8366004610db7565b61051d565b336001600160a01b037f00000000000000000000000000000000000000000000000000000000000000001614610226576040516313bd2e8360e31b815260040160405180910390fd5b6000838152602081905260409020600181015490546001600160a01b0316610250848483856106f3565b60008061025b61074d565b6000898152602081905260408120600201549294509092506001600160a01b039091169061271061029061ffff851688610e05565b61029a9190610e24565b905060006102a88288610e46565b90506102b58b84836107d9565b6040516370a0823160e01b81526001600160a01b038c81166004830152600091908816906370a0823190602401602060405180830381865afa1580156102ff573d6000803e3d6000fd5b505050506040513d601f19601f820116820180604052508101906103239190610e5d565b905061032e81610835565b604051636eb1769f60e11b81526001600160a01b038d81166004830181905260248301526000919089169063dd62ed3e90604401602060405180830381865afa15801561037f573d6000803e3d6000fd5b505050506040513d601f19601f820116820180604052508101906103a39190610e5d565b90506103ae81610835565b6103c36001600160a01b0389168e878661087d565b6103ce8d88856107d9565b6103e36001600160a01b0389168e898761087d565b50505050505050505050505050565b6060336001600160a01b037f0000000000000000000000000000000000000000000000000000000000000000161461043d576040516313bd2e8360e31b815260040160405180910390fd5b6000808061044d85870187610e76565b92509250925061045c826108d7565b158061046f57506001600160a01b038116155b8061047b575061271083105b15610499576040516348be0eb360e01b815260040160405180910390fd5b600087815260208181526040918290206001810186905580546001600160a01b038087166001600160a01b031992831617835560029092018054928616929091169190911790558151601f880182900482028101820190925286825287908790819084018382808284376000920191909152509296505050505050505b9392505050565b60405163a9ec656360e01b8152600481018490526000907f00000000000000000000000000000000000000000000000000000000000000006001600160a01b03169063a9ec656390602401602060405180830381865afa158015610585573d6000803e3d6000fd5b505050506040513d601f19601f820116820180604052508101906105a99190610eb8565b90506001600160a01b0381166105d257604051636992d36b60e11b815260040160405180910390fd5b8161065e576040516370a0823160e01b81526001600160a01b0384811660048301528216906370a0823190602401602060405180830381865afa15801561061d573d6000803e3d6000fd5b505050506040513d601f19601f820116820180604052508101906106419190610e5d565b6100a557604051636992d36b60e11b815260040160405180910390fd5b6040516331a9108f60e11b8152600481018390526001600160a01b038085169190831690636352211e90602401602060405180830381865afa1580156106a8573d6000803e3d6000fd5b505050506040513d601f19601f820116820180604052508101906106cc9190610eb8565b6001600160a01b0316146100a557604051636992d36b60e11b815260040160405180910390fd5b60008061070285870187610ed5565b9150915082811415806107275750836001600160a01b0316826001600160a01b031614155b15610745576040516346308bd560e01b815260040160405180910390fd5b505050505050565b6000807f00000000000000000000000000000000000000000000000000000000000000006001600160a01b03166398f965d16040518163ffffffff1660e01b81526004016040805180830381865afa1580156107ad573d6000803e3d6000fd5b505050506040513d601f19601f820116820180604052508101906107d19190610f01565b915091509091565b6040516001600160a01b03808516602483015283166044820152606481018290526108309060840160408051601f198184030181529190526020810180516001600160e01b031663361b36b960e11b17905261096c565b505050565b61087a8160405160240161084b91815260200190565b60408051601f198184030181529190526020810180516001600160e01b031663f5b1bba960e01b17905261096c565b50565b604080516001600160a01b0385811660248301528416604482015260648082018490528251808303909101815260849091019091526020810180516001600160e01b03166323b872dd60e01b1790526100a590859061098d565b6040516343b938c560e01b81526001600160a01b0382811660048301526000917f0000000000000000000000000000000000000000000000000000000000000000909116906343b938c590602401602060405180830381865afa158015610942573d6000803e3d6000fd5b505050506040513d601f19601f820116820180604052508101906109669190610f42565b92915050565b80516a636f6e736f6c652e6c6f67602083016000808483855afa5050505050565b60006109e2826040518060400160405280602081526020017f5361666545524332303a206c6f772d6c6576656c2063616c6c206661696c6564815250856001600160a01b0316610a649092919063ffffffff16565b8051909150156108305780806020019051810190610a009190610f42565b6108305760405162461bcd60e51b815260206004820152602a60248201527f5361666545524332303a204552433230206f7065726174696f6e20646964206e6044820152691bdd081cdd58d8d9595960b21b60648201526084015b60405180910390fd5b6060610a738484600085610a7b565b949350505050565b606082471015610adc5760405162461bcd60e51b815260206004820152602660248201527f416464726573733a20696e73756666696369656e742062616c616e636520666f6044820152651c8818d85b1b60d21b6064820152608401610a5b565b6001600160a01b0385163b610b335760405162461bcd60e51b815260206004820152601d60248201527f416464726573733a2063616c6c20746f206e6f6e2d636f6e74726163740000006044820152606401610a5b565b600080866001600160a01b03168587604051610b4f9190610f64565b60006040518083038185875af1925050503d8060008114610b8c576040519150601f19603f3d011682016040523d82523d6000602084013e610b91565b606091505b5091509150610ba1828286610bac565b979650505050505050565b60608315610bbb575081610516565b825115610bcb5782518084602001fd5b8160405162461bcd60e51b8152600401610a5b9190610da4565b6001600160a01b038116811461087a57600080fd5b60008083601f840112610c0c57600080fd5b50813567ffffffffffffffff811115610c2457600080fd5b602083019150836020828501011115610c3c57600080fd5b9250929050565b60008060008060608587031215610c5957600080fd5b8435610c6481610be5565b935060208501359250604085013567ffffffffffffffff811115610c8757600080fd5b610c9387828801610bfa565b95989497509550505050565b60008060008060808587031215610cb557600080fd5b843593506020850135610cc781610be5565b92506040850135610cd781610be5565b9396929550929360600135925050565b600060208284031215610cf957600080fd5b5035919050565b600080600060408486031215610d1557600080fd5b83359250602084013567ffffffffffffffff811115610d3357600080fd5b610d3f86828701610bfa565b9497909650939450505050565b60005b83811015610d67578181015183820152602001610d4f565b838111156100a55750506000910152565b60008151808452610d90816020860160208601610d4c565b601f01601f19169290920160200192915050565b6020815260006105166020830184610d78565b600080600060608486031215610dcc57600080fd5b833592506020840135610dde81610be5565b929592945050506040919091013590565b634e487b7160e01b600052601160045260246000fd5b6000816000190483118215151615610e1f57610e1f610def565b500290565b600082610e4157634e487b7160e01b600052601260045260246000fd5b500490565b600082821015610e5857610e58610def565b500390565b600060208284031215610e6f57600080fd5b5051919050565b600080600060608486031215610e8b57600080fd5b833592506020840135610e9d81610be5565b91506040840135610ead81610be5565b809150509250925092565b600060208284031215610eca57600080fd5b815161051681610be5565b60008060408385031215610ee857600080fd5b8235610ef381610be5565b946020939093013593505050565b60008060408385031215610f1457600080fd5b8251610f1f81610be5565b602084015190925061ffff81168114610f3757600080fd5b809150509250929050565b600060208284031215610f5457600080fd5b8151801515811461051657600080fd5b60008251610f76818460208701610d4c565b919091019291505056fea2646970667358221220fda6cd6fb03c8e33382fe4334a00411214069972b03412c7a5d5585a8d4e2a3064736f6c634300080a0033",
  "linkReferences": {},
  "deployedLinkReferences": {}
}